:0200000270008C
:108000000000012009830700318307003383070044
:10801000358307003783070039830700000000001D
:1080200000000000000000000000000045C1070043
:108030003D830700000000003F83070041830700E5
:1080400043830700438307004383070043830700FC
:1080500043830700438307004383070043830700EC
:1080600043830700438307004383070043830700DC
:1080700043830700438307004383070043830700CC
:108080004D9D070043830700438307004383070098
:10809000438307004383070049C307004383070066
:1080A000438307004383070043830700438307009C
:1080B0004383070043830700000000000000000026
:1080C000438307004383070043830700438307007C
:1080D000FD99070043830700438307000000000069
:1080E0000000000000000000000000000000000090
:1080F0000000000000000000000000000000000080
:10810000000000000000000000000000000000006F
:10811000000000000000000000000000000000005F
:10812000000000000000000000000000000000004F
:10813000000000000000000000000000000000003F
:10814000000000000000000000000000000000002F
:10815000000000000000000000000000000000001F
:10816000000000000000000000000000000000000F
:1081700000000000000000000000000000000000FF
:1081800000000000000000000000000000000000EF
:1081900000000000000000000000000000000000DF
:1081A00000000000000000000000000000000000CF
:1081B00000000000000000000000000000000000BF
:1081C00000000000000000000000000000000000AF
:1081D000000000000000000000000000000000009F
:1081E000000000000000000000000000000000008F
:1081F000000000000000000000000000000000007F
:108200000348044B834202D0034B03B11847704725
:10821000A8590020A8590020000000000548064B7E
:108220001B1AD90F01EBA301491002D0034B03B174
:1082300018477047A8590020A859002000000000E6
:1082400010B5064C237843B9FFF7DAFF044B13B19E
:108250000448AFF300800123237010BDBC590020F7
:1082600000000000D0DA070008B5054B1BB1054936
:108270000548AFF30080BDE80840FFF7CFBF00BF5F
:1082800000000000C0590020D0DA0700A3F5803AB2
:10829000704700BF174B002B08BF134B9D46FFF7DD
:1082A000F5FF00218B460F461348144A121A05F0B9
:1082B00057F90E4B002B00D098470D4B002B00D0E8
:1082C00098470020002104000D000D48002802D02E
:1082D0000C48AFF3008005F04BF92000290004F0B2
:1082E00043F905F01BF900BF000008000000000082
:1082F0000000000000000120BC590020887F002001
:1083000000000000000000000649074A074B9B1AC6
:1083100003DD043BC858D050FBDC00F03DF8FFF70C
:10832000B9FF000034DB070068590020BC59002069
:10833000FEE7FEE7FEE7FEE7FEE7FEE7FEE7FEE715
:10834000FEE7FEE74FF08053D3F83001421C04BF34
:108350004FF0704393F8E00F831F58425841704725
:108360004FF0704393F8E02F062A09D1D3F8E83F85
:10837000C3F30313033B042B02D8024AD05C7047BB
:10838000002070470FD60700024AD2F80034002BB5
:10839000FBD0704700E0014010B5FFF7D3FF40B1BC
:1083A0004FF08053944AD3F82433C3F30423C2F824
:1083B0004035FFF7D5FF10B1904B914A5A67FFF750
:1083C000C1FF48B14FF080534FF08042D3F84432A0
:1083D000C3F34233C2F83C35FFF7C2FF30B1894ADC
:1083E000D2F8FC3023F08073C2F8FC30FFF7AAFF0C
:1083F00040B14FF080430022C3F80C21C3F8102194
:10840000C3F83825FFF7ACFF20B14FF080430322BB
:10841000C3F8A025FFF7A4FF60B17B4B0522C3F88A
:1084200010260122C3F888260022C3F818263F220E
:10843000C3F814264FF08053D3F83021511C09BFE4
:108440004FF07043D3F8343193F8E02FD3F8E83F7E
:1084500008BFC3F30313062A4DD1033B042B03D8F3
:108460006A4AD35C002B46D04FF08052684BD2F85A
:108470000414C3F82015D2F80814C3F82415D2F850
:108480000C14C3F82815D2F81014C3F82C15D2F820
:108490001414C3F83015D2F81814C3F83415D2F8F0
:1084A0001C14C3F84015D2F82014C3F84415D2F8B0
:1084B0002414C3F84815D2F82814C3F84C15D2F880
:1084C0002C14C3F85015D2F83014C3F85415D2F850
:1084D0003414C3F86015D2F83814C3F86415D2F810
:1084E0003C14C3F86815D2F84014C3F86C15D2F8E0
:1084F0004424C3F87025FFF725FF48B14FF080539F
:108500004FF08042D3F8583203F04F03C2F8E43EF4
:10851000FFF718FF48B14FF08043D3F80024D2078B
:1085200044BF6FF00102C3F800244FF08053D3F82A
:108530003021062A0ED1D3F83431033B042B02D864
:10854000344AD35C33B1344AD2F83C3743F48063C5
:10855000C2F83C372B4AD2F8883043F47003C2F893
:108560008830BFF34F8FBFF36F8F4FF08053D3F836
:108570003021062A0FD1D3F83431033B042B02D823
:10858000264AD35C3BB14FF01023D3F808224FF0BA
:108590008043C3F858254FF01023D3F80022002A57
:1085A00003DBD3F80432002B22DA1D4901234FF0FC
:1085B0001020C1F804351524FFF7E6FEC0F800428C
:1085C000FFF7E2FEC0F80442FFF7DEFE0023C1F829
:1085D0000435FFF7D9FEBFF34F8F0A49114BCA6824
:1085E00002F4E0621343CB60BFF34F8F00BFFDE79F
:1085F0000D4B0E4A1A6010BD0030014000C007400C
:108600000DF0ADBA00ED00E0005000400AD60700C2
:1086100000C0004005D607000010004000D607004B
:1086200000E001400400FA05685900200090D003E2
:108630004B1C30B5DB00044612F003009BB20DD199
:10864000074D2A601A44074B1A60074B1870074BF6
:108650001870074B1C80074B198030BD0720FCE7C2
:10866000E4590020E0590020DC590020DD590020A9
:10867000DA590020D85900202DE9F347DFF8B480FB
:10868000B8F800308B4206460C4617464AD3002500
:108690000DF107008DF8075000F080F8224B234AB7
:1086A000DFF894C01B78BCF800C010786045C1B2F8
:1086B00038BF0131DBB238BFCDB2AB429DF8070005
:1086C00005D100F08FF8042002B0BDE8F0871578DE
:1086D0001178DFF86890CBB28C4586BF0133DBB2EE
:1086E0000023EDB2137000F07DF8D9F800304FEAA6
:1086F000C50A43F8357003EBC50286B17CB10C4B5B
:10870000B8F800001B68224605FB0030314604F033
:1087100053FFD9F8003053449C800020D4E7002355
:108720009380FAE70920CFE7DD590020DC590020CB
:10873000E0590020DA590020D8590020E4590020DF
:1087400070B5104C104D22782B789A4200D170BD34
:108750000E480F4A2378126806880E4802EBC301C0
:10876000006852F83320898803FB060090470A49C5
:1087700022780988D3B2914286BF0133DBB200234D
:108780002370E0E7DD590020DC590020DA59002091
:10879000E4590020E0590020D859002070B5EFF3CB
:1087A000108672B60C4A9468012384B993600B4B0F
:1087B0000B4DD3F8801029401160C3F88050D3F8D6
:1087C000841051604FF0FF32C3F8842023460370B9
:1087D00006B962B670BD00BFE859002000E100E0B4
:1087E000FC06FFBD10B5084B9A685AB150B9EFF3BB
:1087F000108172B6054A1C6814605C685460986009
:1088000001B962B610BD00BFE859002000E100E0E8
:1088100030B53AB11368DB430A4D0144884204D1B4
:10882000D84330BD4FF0FF33F6E710F8012B53402B
:10883000082213F0010418BF2C46013A84EA5303BE
:10884000F7D1EBE72083B8ED10B561B1B2FBF3F4DB
:1088500003FB1424A4B244B9C0E9001484608281EB
:10886000C381204610BD0E20FCE70920FAE782B044
:1088700050E8022FC188B2EB324F4FF0000317BF10
:1088800092B241EA014142EA014104E04268B2EB9E
:10889000324F08BF012340E80212002AE8D18DF8C8
:1088A00007309DF80730002B0CBF1120002002B0CC
:1088B000704737B550E8013F9DB2C489254484898B
:1088C000A54228BF2D1B0489A54202BFBFF32F8FED
:1088D000002207E0C5EA030540E80154002CE9D175
:1088E0004FF001028DF803200193019A0A609DF870
:1088F000031001F0FF0321B1006810FA82F003B009
:1089000030BD1846FBE70A884B889A4209D150E8E7
:10891000012FC2EA024240E80123002BF7D10120D7
:1089200070470020704737B550E8023F1FFAA3F5A3
:10893000C488A54202BFBFF32F8F00220DE0C48977
:1089400025448489A54228BF2D1BC3EA054540E87C
:108950000254002CE8D14FF001028DF8032001935E
:10896000019A0A609DF8031001F0FF0321B100682D
:1089700000EB124003B030BD1846FBE70A884B8875
:108980009A4209D150E8022FC2EA224240E802236B
:10899000002BF7D1012070470020704710B5034627
:1089A00053E8000F40EA010243E8002494F0000F6E
:1089B000F6D110BD10B5034653E8002F02EA0100BE
:1089C00043E8000494F0000FF6D110BD0121FFF739
:1089D000E5BF0021FFF7EEBF10B590B1D0E901234C
:1089E00001689B1ADBB20A60013BDBB2FF2B026815
:1089F00002D10020107110BD11684C1C14600B7066
:108A0000F2E70E20F7E737B5044600250DF1070021
:108A10008DF80750FFF7C2FE2268616813688B4229
:108A200010D9591E1160216813F8010C258AE368DA
:108A3000A2680C68121B0C79D2B2944238BF0A713A
:108A400005FB00359DF80700FFF7CCFE284603B074
:108A500030BD37B5054600230DF107000C468DF8F3
:108A60000730FFF79BFE2A681368591C1160EA68FB
:108A7000A41A2A8AB4FBF2F41C709DF80700FFF7D1
:108A8000B1FE03B030BD01600B681146184710B449
:108A90000468E468A4465DF8044B604710B40468B9
:108AA0002469A4465DF8044B6047000070B550B9D6
:108AB0000E4D0F4C0026641B1423B4FBF3F4B44298
:108AC00008D1002010E00368002BF1D0BDE8704011
:108AD000DB6918472B6813B901361435EFE7DB69FA
:108AE000284698470028F7D070BD00BFA85900203D
:108AF000BC590020014B43600020704734D607006A
:108B00000846704700207047024B1868003818BFAD
:108B100001207047F459002008B50248FFF759FFBB
:108B2000002008BDF459002008B510461A4604F08C
:108B300043FD002008BD00002DE9F041804686B0CD
:108B400011480F4616461D46FFF740FF0446C8B9B8
:108B5000AA083146384600F015FC0B48FFF739FFEC
:108B6000D8F8083053B101228DF800200C9A0592F4
:108B7000CDE90147CDE9036568469847204606B030
:108B8000BDE8F0811124F9E7F45900202DE9F04304
:108B9000814687B014480E4615469846FFF716FFE3
:108BA0000446F0B90746BD4215D10F48FFF711FF43
:108BB000D9F808305BB102228DF800200022CDE9FF
:108BC0000126CDE90325CDF8148068469847204654
:108BD00007B0BDE8F08306EB073000F0A5FB0137D6
:108BE000E1E71124F3E700BFF459002029DF7047C3
:108BF00028DF704770B50668B36886B004460D4636
:108C000073B114220021684604F0AAFCA3680593FE
:108C10002379019533B1012B0ED0B368684698478C
:108C200006B070BD01238DF8003023690293E3681C
:108C3000039363690493F0E702238DF80030E3683F
:108C40001B030293F5E708467047002070470000B9
:108C5000024B187A003818BF01207047005A0020D4
:108C6000034B187A0122B0FA80F05A744009704719
:108C7000005A002008B510461A4604F09DFC00205A
:108C800008BD000008B514220021044804F068FC67
:108C90000348FFF7ECFD002008BD00BF005A00208C
:108CA000145A002010B5094C094B43602046FFF7C9
:108CB0008DFE48B903F02EFB064920741C2306489C
:108CC0004FF4EE72FFF7C0FD002010BD005A0020E7
:108CD00060D60700245A0020145A002038B5224CD0
:108CE000224D237A3BB922492248FFF71CFE286017
:108CF00008B9606038BD022323722B681A7972B1FB
:108D0000012A22D028680321FFF774FF0023237271
:108D10006360BDE8384016491648FFF72FBED3E917
:108D20000520121A142AD3E9031328BF142292082B
:108D3000012A014438BF01221844FFF757FF50B100
:108D40001128DFD101232372D4E7D3E903031844A8
:108D5000FFF74EFFF3E7237C002BCBD1BDE8384073
:108D6000022000F009B800BF005A0020FC59002082
:108D7000F8590020145A002038B5234C237A0246B3
:108D8000002B3FD0022B09D1032824D01F4B186899
:108D90000023E36003793BB1012B16D0637C6BBBEE
:108DA000BDE83840FFF79ABFD0E90513CD1A142D5E
:108DB00094BF5B19143383619942EFD10023022AD7
:108DC000237214BF0D21194611E003694169013373
:108DD00003618B42F1E7E3680133082B01D8E360BC
:108DE000DCE70023E3602372084B18680D21FFF7CE
:108DF00001FF07490748FFF7C1FDCFE7BDE838404D
:108E000003F078BA38BD00BF005A0020FC5900209A
:108E1000F8590020145A0020831E012B01D8FFF7B7
:108E2000ABBF704700F0FD03012B08D1044B0022BB
:108E30005A74421E504250411874FFF74FBF70479A
:108E4000005A002008B50648FFF7C0FD30B9054BB1
:108E50005B7C1BB9BDE80840FFF740BF08BD00BF01
:108E6000045A0020005A00202DE9F34180460D46A7
:108E70000F4801A916461F46FFF71BFD0446A8B17F
:108E80001C22002104F06CFB2D0B0123237101A98E
:108E90000748C4F80080A760E5606661FFF733FD0E
:108EA000FFF7D0FF002002B0BDE8F0810420FAE710
:108EB000145A00202DE9F74381468846104801A93D
:108EC00017461E46FFF7F5FC0446B0B11C220021F0
:108ED00004F046FB00250A9BA36001A9C4E90378BE
:108EE00007482571C4F800906661FFF70CFDFFF795
:108EF000A9FF284603B0BDE8F0830420FAE700BFCD
:108F0000145A002001600B6843604A68934208BF0E
:108F1000002343607047436843B1026891680B4483
:108F200043605268934204BF0023436070470000CF
:108F30002DE9F04FC9B008AA01F1400514464B785D
:108F40000E781B0443EA0663CE7833438E780431EF
:108F500043EA06238D4244F8043BF0D11024916B80
:108F600016464FEAF14383EA714383EA9123716A1B
:108F7000366852F8045F31440B444FEAB54181EA48
:108F8000F51181EAD50101340B44402CD363E6D1BD
:108F9000D0E914E30093836D0193C36D0293036ED4
:108FA0000393436E0493836E0593C36E0693DDE9CA
:108FB000057ADDE9031CDDE901592B4B009E07937F
:108FC00074464FF00008079A08AB52F804BB53F8F8
:108FD000283007924FEAF12282EAB1129B4482EADA
:108FE00071625A4427EA010301EA0C0B83EA0B037E
:108FF0001A44524486EA05034FEA743A06EA050B1E
:109000008AEAB40A23408AEAB45A83EA0B0308F1D5
:1090100001085344B8F1400F02EB090B1344A94671
:10902000BA4619D173440365009B23444365019BF1
:1090300033448365029B2B44C365039B5B440366F7
:10904000049B0B444366059B63448366069B3B4439
:10905000C36649B0BDE8F08F674635468C46264664
:1090600059461C46AFE700BF6CD6070030B5E0B1EB
:109070000F4A104900240025C0E91245C0E9141226
:109080000D4C0E4A0E4DC0E916420E4AC0E9185268
:109090000D4A826602F17452A2F523020023A2F661
:1090A00092420364C266184630BD0E20FCE700BF42
:1090B00085AE67BB67E6096A72F36E3C3AF54FA569
:1090C0007F520E518C68059BABD9831F70B50C463F
:1090D00040B12AB9A5180026AC4205D1002070BDC8
:1090E0000029F7D10E20FAE7036C14F8012BC254C3
:1090F0000133402B0364EFD10146FFF719FFD0E99C
:10910000123213F5007342F10002C0E91232066414
:10911000E2E770B50D461646044600287CD00029CB
:109120007AD0026C8021372A815400EB020342D8A6
:1091300000F1370200219A423AD1D4E91223216C7E
:109140000820E1FB0023C4E9122312BAE26323FAE8
:1091500000F284F83B3084F83A201A0C1B0E2146AA
:1091600084F8392084F838302046FFF7E1FE691E84
:109170009EB30023E26EDA4001F8012FA26EDA40BE
:109180000A71626EDA400A72226EDA400A73E26D88
:10919000DA400A74A26DDA400A75626DDA400A7626
:1091A000226DDA400833202B0A77E3D1002070BD0E
:1091B00003F8011FBFE7C0F101010020CA183F2AD0
:1091C00008D921462046FFF7B3FE3822002104F0DB
:1091D000C7F9B2E703F8010FF0E71823226DDA4070
:1091E00001F8012F626DDA400A71A26DDA400A724D
:1091F000E26DDA400A73226EDA400A74626EDA4077
:109200000A75A26EDA400A76E26EDA40083B13F184
:10921000080F0A77E2D1C9E70E20C8E743689B68C8
:10922000184708B5436808305A7900F0C8F900209B
:1092300008BD2DE9F0430C469BB0084698461746FA
:10924000FFF7ECFFD4F8049099F80550454528BF86
:10925000454606462A46394602A800F0A5F999F87F
:10926000052022990AA800F0AAF900960AAB2A461E
:1092700002A904F1080003F0F9FF002848F2425067
:1092800018BF00201BB0BDE8F0830000044B1A5C3F
:10929000012393404FF0A042C2F80C35704700BF45
:1092A00078D70700044B1A5C012393404FF0A0428B
:1092B000C2F80835704700BF78D7070008B500200E
:1092C000FFF7F0FF0120FFF7EDFF0220FFF7EAFFB5
:1092D000BDE808400320FFF7E5BFC20708B5014617
:1092E0000CD54FF0A0430322C3F84427C3F8482706
:1092F000C3F84C27C3F85027FFF7E0FF8B070AD5C8
:109300004FF0A0430C22C3F83427C3F83827C3F822
:109310003C27C3F8402708BD024AD2F80034002B8E
:10932000FBD0704700E001400A4908B50223C1F8AC
:109330000435BFF36F8FBFF34F8FC1F80805FFF7F8
:10934000EBFF0023C1F80435BFF36F8FBFF34F8FDE
:1093500008BD00BF00E0014010B5094C0123C4F86E
:109360000435BFF36F8FBFF34F8F0160FFF7D4FF5A
:109370000023C4F80435BFF36F8FBFF34F8F10BDC8
:1093800000E0014070B50E4E01231546C6F80435C5
:10939000BFF36F8FBFF34F8F0024AC4207D1002380
:1093A000C6F80435BFF36F8FBFF34F8F70BD51F810
:1093B000243040F82430FFF7AFFF0134EDE700BF61
:1093C00000E00140034620B131B10020C1E90003B3
:1093D000704748F21050704748F21350704730B150
:1093E000036848F240508B4208BF0020704748F2A3
:1093F0001050704728B148F21150914208BF002028
:10940000704748F21050704770B506460C461D462E
:10941000FFF7D8FF50B9B3794AB1AB420AD1114630
:109420002046FFF7FEFE08B9044B236070BD48F2EA
:109430001050FBE748F21150F8E700BF7052464D5C
:109440002DE9F0470C4606460F492046DDE908891C
:1094500015461F46FFF7C3FFA0B963685A7949460E
:1094600052004046FFF7C6FF60B94DB1CDF82080ED
:109470003B462A4621463046BDE8F047FFF7D9BEB5
:1094800048F21050BDE8F0877052464D10B50446C2
:1094900038B149B141600B68984708B9044B236063
:1094A00010BD48F20150FBE748F21050F8E700BF4A
:1094B0006E524648F0B4134648B10768094EB742A9
:1094C0000AD161B12AB14368F0BC5B68184748F221
:1094D00001531846F0BC704748F20253F9E748F2CE
:1094E0001053F6E76E524648F0B460B107680C4E70
:1094F000B7420CD171B143681568DC68A5420CD342
:10950000F0BC9B68184748F20150F0BC704748F225
:109510000250FAE748F21350F7E748F21450F4E724
:109520006E5246482DE9F0410446DDE906781546BD
:109530001E46FFF7ABFF60B9324629462046FFF7CB
:10954000B9FF30B9424639462046BDE8F041FFF741
:10955000CBBFBDE8F0810000F8B50A4F0A4C0B4EB6
:10956000E41B0123E40833700025A54203D1022344
:1095700033700020F8BD57F8353098470028F9D1EE
:109580000135F2E7D4DA0700D4DA0700005C0020E6
:1095900001390144814200D2704703780A7800F80B
:1095A000012B01F80139F5E7013A02440139824201
:1095B00000D2704711F8013F02F80139F7E770B5A2
:1095C00016460D46FFF7F0FF3246A9193044BDE8B4
:1095D0007040FFF7E9BF38B50D460446FFF7D8FFE6
:1095E00029466019BDE83840FFF7D2BF008800F077
:1095F0000100704741DF7047014B01221A7070472C
:1096000024600020BFF34F8F0549064BCA6802F45F
:10961000E0621343CB60BFF34F8F00BFFDE700BF95
:1096200000ED00E00400FA05024B034800221A7026
:1096300001F09EBF2460002005960700042810B5A5
:10964000044609D8022811D816D00D4B1B68B3B1B7
:109650002046BDE810401847831F012BF5D8094B61
:10966000094800221A7001F083FFEEE707494FF422
:10967000B40000F005FAE8E701F0CCFEE5E710BD24
:109680002860002024600020059607002996070026
:109690000020704738B55F4B1860002001F07EFF56
:1096A0000446002840F0B08000F0C2FA012800F023
:1096B000A680022800F0AA80002840F0A5804FF084
:1096C0008042554CD2F80014256ACB033ED54FF4A6
:1096D0008031C2F80014012D45D04FF4B40400F0DD
:1096E00043FB4E4A20211820FEF7A2FF08B102F0EA
:1096F00038FF4FF08043D3F81C2502F0F902B12A5D
:1097000002BFD3F81C2502F04E02C3F81C25424BC1
:109710009A6D012A06D10020986501F0FDFE08B17E
:1097200002F01FFFFFF7B4FF00286DD120463C492F
:1097300000F0A6F93B4801F02BF8002864D100F0B6
:1097400039FBFEF7FDFFFFF755FFF8E7D2F82015CC
:1097500001F0F901A92931D1D2F8201501F0560103
:10976000C2F82015B7E74FF440535A682E4B9A427F
:109770001DD001F0C5FFA26994F8A132012B28D1B8
:109780004FF08043D3F81C3503F0F903B12BA4D07C
:10979000A36D012BA1D001F05FFF002834D1234B32
:1097A0001870234801F0E4FE00F04AF82CE094F829
:1097B0006032626B012BDCD0002512E0012D8CD1D0
:1097C0004FF440525168184A914209D001F098FF75
:1097D000A2690146174802F065FA0028D0D17CE75B
:1097E000626B15484FF4805102F05CFA00283FF498
:1097F00074AF01F085FFA269002DEAD1BCE70B4BE5
:109800000E481C7001F0B4FE032038BD4FF4A024B4
:1098100065E700BF28600020F8770020045C002086
:10982000299607003D960700DBE5B1512460002032
:10983000F9950700997A0020587A002005960700CC
:1098400008B5074B4FF0FF32C3F88020C3F88021E2
:1098500001F0F8FBBDE808404FF4805000F032B84A
:1098600000E100E080F3088808470346C1F30B00DD
:10987000F0B520BBB3F5FE2F21D80139090B1A0B27
:1098800001EB133101264FF0804402F01F0355090C
:1098900006FA03F3032D05D8DFE805F002080B0EE6
:1098A000C4F8003601329142EFD2F0BDC4F804365C
:1098B000F8E7C4F81036F5E7C4F81436F2E70720E5
:1098C000F3E7000010B504461448C0F5FE21FFF789
:1098D000CCFF08B102F045FE01F012FF104B9B696E
:1098E00003F6FF7323F47F6323F00F03191800209E
:1098F000FFF7BBFF08B102F034FEEFF3058300234E
:10990000D4E9000183F3148883F3108883F311886A
:1099100083F31388BDE81040FFF7A4BF0080070061
:10992000F87700201FB518490B7853BB4FF08043E0
:10993000A024D3F81824D2035CBF01229A60134BF1
:109940000022C3F80021D3F8000103900398C3F864
:109950004021D3F8400102900298C3F84421D3F883
:109960004401019001980A4880F82443102444607F
:109970000220C3F8082501229A601A60C3F8040384
:109980000A7004B010BD00BF2C60002000400240EF
:1099900000E100E037B56FF07F42154C057BD4F84D
:1099A00004358A4228BF0A46891A13444A1E942A5B
:1099B00023F07F4305F5A8729CBF963B963141602A
:1099C00044F822300B4B4FF4F86043F00103984702
:1099D000094BAA00134400221A601B680193019BE3
:1099E0004FF48033AB40C4F8043303B030BD00BF44
:1099F0000040024080D707004041024073B51B4B36
:109A0000D3F8042152B11A490A6801320A600022CF
:109A1000C3F80421D3F804310093009B154C164D74
:109A2000164E2B6883B100232B602B68227B019399
:109A3000019B4FF4803393400C4AC2F808336168AD
:109A400051B12046FFF7A6FFB54204F1100401D141
:109A500002B070BD3546E4E7A16811B12046FFF7BA
:109A600099FF2368002BEFD09847EDE700400240B4
:109A700030600020745900204041024044410240BF
:109A800070B50B4B1D682A7B4FF480339340094A15
:109A90000E46C2F80833044640B1FFF743FF2E607C
:109AA00021462846BDE87040FFF774BF70BD00BF77
:109AB000705900200040024070B5074B1D680E46EB
:109AC000A8600446FFF72EFF2E6021462846BDE819
:109AD0007040FFF75FBF00BF6C590020014B0122AF
:109AE0001A7070473460002081422DE9F74F044618
:109AF0000F46154604D10023184603B0BDE8F08F89
:109B00003E1B360B02F6FF7800F02EF9082E28BF18
:109B100008263303DFF864B001934FEA1838002DAC
:109B2000E9D046452CBFC246B2464FF0000251462E
:109B3000204634BFDDF80490A94601F04DFA0346F3
:109B40000028D9D109F1030222F003023946204648
:109B500001F034FA03460028CED1DBF830304B4414
:109B6000CBF8303001F00AFDA8EB0A08A5EB090597
:109B70004C444F4403460028D1D0BDE7F87700207D
:109B800010B501F0E1FD114A916C01F500535C68DC
:109B90000F4B9C4214D1D2E90C32934213D0D21A0B
:109BA00002F6FF7222F47F621944184422F00F0279
:109BB000FFF79AFF034620B9BDE8104001F0DEBC74
:109BC0000323184610BD0023FBE700BFF8770020F1
:109BD000DBE5B15170B5144EF36A756AB46CAC2B09
:109BE00013D1736B1C44ED1AF36AAC2B13D00F48DE
:109BF0002A46214603F0A4FCA8B100F0DBF8294670
:109C00002046BDE8704001F0FFB9002CECD101F016
:109C10008BFD0446E8E705482A46A4F5804103F099
:109C20008FFC0028E3D170BDF8770020008007008A
:109C300070B5274CE36AAA2B43D005D8012B0CD072
:109C4000A52B3AD0002070BDAC2BFBD1FFF798FFBD
:109C5000002834D1FFF7BEFF31E0A56C666A01F041
:109C60004FFD226B03469D4205EB0201104414BFD9
:109C7000B21A0022FFF738FF054660B901F040FD37
:109C80002A463146FEF7C4FDA36A984203D1012358
:109C9000C4E90703A66100250E4801F025FD0E4B1F
:109CA0000E4800221A7001F069FC68B975B1236A88
:109CB000012B14BF01200220C5E7FFF761FF01253A
:109CC000EAE7FFF787FFE6E70320BCE70120BAE7F2
:109CD000F87700201C78002034600020DD9A07000F
:109CE00010B50024D4F8F83F013304D1084940F6F8
:109CF000F870FFF731FBD4F8FC3F013307D1BDE822
:109D000010404FF4FC2140F6FC70FFF725BB10BD5E
:109D1000008007000A4AD2F800347BB109480023CA
:109D2000D2F80815D940C90748BF03F5C07103F13F
:109D3000010348BF42F82100072BF1D1704700BF53
:109D4000000001403546526EFFF7E4BF054B00228C
:109D500082B0C3F80021D3F800310193019B02B017
:109D6000704700BF0000014038B50E4C2378BBB9E6
:109D70000D4BD3F800248AB1D3F80455FFF7CAFF7E
:109D800040F61650A842B8BF28460849A0F54860DA
:109D9000FFF792FE064B4FF480321A6001232370C6
:109DA00038BD00BF3560002000000140499D07001C
:109DB00000E100E0034BD3F800340BB1FFF7AABF7A
:109DC000704700BF000001400023C0E90232C0E933
:109DD00000118B881A440261B1F906301A444261BD
:109DE0000888003818BF0120704710B542681188F4
:109DF000034641B102F110014160118A29B9C268DC
:109E00000168FFF7E1FF002010BD9078118900F094
:109E10003004302C1BD1947C04F03004302C1DD144
:109E200090881969091A19610021907810F0300F93
:109E300002BF986801309860908A0844196901440B
:109E40001961B2F91620114459610120DCE700F0D4
:109E5000F004202C02D150894143E6E700F0C00015
:109E6000802808BF0421E0E770B5466804460D4627
:109E700063681A88AA4204D19B7803F00F03082B69
:109E800007D12046FFF7B1FF6368B342F0D100204D
:109E900070BD0120FCE743681A44426011B10139EA
:109EA0009A4201D10120704713F8010B01F8010F0C
:109EB000F6E710B5836804460BB9002010BD0368AF
:109EC000012298470028F8D0A368013BA360F5E77A
:109ED0002DE9F3410F460DF107018046FFF7E9FF39
:109EE000054620B90025284602B0BDE8F0819DF95D
:109EF00007309DF80740002B13DA04F07F04072693
:109F00000DF107014046FFF7D4FF0028EAD09DF885
:109F1000072002F07F03B3401C43130606F1070637
:109F200001D43C60DFE7232EEAD1DBE770B542685D
:109F3000927802F00F01082986B003461FD1036909
:109F40001C6800260CB906B070BD236826739D6896
:109F5000626829466846FFF737FF6368049304F197
:109F60000C030593AB7803F0C003802B08BF231DBF
:109F7000684608BF0493FFF7D9FFA468E2E73F2AC9
:109F800028D802F03001102911D142690021117046
:109F90005A6818699378D46803F00F03072B0CD123
:109FA0000146204606B0BDE8704000F01FB891069B
:109FB000EED5436900221A80C5E71289214624B1F3
:109FC00006B0BDE8704003F0F7BA06B0BDE87040D7
:109FD00003F0C6BA02F0C0018029B4D100690021A3
:109FE0000160920644BF5B691980ACE77FB50A4601
:109FF00001466846FFF7E8FE30B16846FFF796FF76
:10A000006846FFF7F2FEF7E707B05DF804FB0000D3
:10A0100030B5044685B01546A9B90268114B9A427D
:10A0200011D0102D06D82A4669462046FFF7F0FFCA
:10A0300005B030BD102269462046FFF7E9FF002831
:10A04000F6D0103DEDE7A368AB4201D20020EFE768
:10A0500023682A46204698470028F7D0A3685B1B50
:10A06000A360E5E7979E07002DE9F3410F4601A99C
:10A0700080461646FFF72CFFA0B1019C621C4FF0F2
:10A08000000504D2BB7803F0C003802B01D1284621
:10A0900008E03B899342FAD3224631464046FFF717
:10A0A000B7FF355502B0BDE8F08173B50D4601A983
:10A0B00006461446FFF70CFFB0B1019AB2F5803F97
:10A0C00012D2AB7803F0C003802B02F102010BD057
:10A0D0002B898B4208D32146304621F8022B02B04F
:10A0E000BDE87040FFF794BF002002B070BD0000D3
:10A0F00010B5034C82600022C0E90041C26010BD6F
:10A10000979E07002DE9F341002506460F46A84615
:10A110002C460DF107013046FFF7CBFEC0B19DF88C
:10A1200007C0A4F120030CF07F02C4F1200102FA61
:10A1300003F322FA01F10B43A2401CF0800F45EA21
:10A14000020543EA080804F1070404D1C7E90058EE
:10A1500002B0BDE8F081462CDBD10020F8E737B52E
:10A160000D4669461446FFF7CDFF70B12B89082BC9
:10A170000DD1DDE90032C4E90032DDE90001914290
:10A1800008BF98420CBF0120002003B030BD042B53
:10A1900003D1009B23600022EFE7022B03D1009B39
:10A1A00023809BB2F7E7012B04D1009B237003F0BF
:10A1B000FF03F0E70020E8E737B50D46694614468F
:10A1C000FFF7A0FF30B12B89082BDDE9001203D186
:10A1D000C4E9001203B030BD042B4FEAE17009D18D
:10A1E00021600B460246824208BF8B420CBF012011
:10A1F0000020EFE7022B03D10BB22380DA17F2E73E
:10A20000012B02D14BB22370F8E70020E2E7F7B54B
:10A210001F4600233B700D460B70136001A90446D6
:10A220001646FFF755FE38B9A36813B1002003B0F6
:10A23000F0BD01233B70F9E7019C002CF9D0E30845
:10A2400004F0070433602C70F1E713B504460529C8
:10A2500021D8DFE801F0030F1720201E012201A9F9
:10A260002046FFF7D5FE18B19DF90430002BF5DB31
:10A2700002B010BD08220021204602B0BDE8104007
:10A28000FFF7C6BE01A9FFF723FE0028F0D0019A10
:10A29000F1E70422EFE70020EAE773B50D4601A9D4
:10A2A0000446FFF715FE064618B90026304602B0F0
:10A2B00070BD94E80F0085E80F0001998A42F4D33D
:10A2C000A960A3685B1AA360F0E700002DE9F043E2
:10A2D0005768BB7813F0C00489B006468C46154613
:10A2E00003D0402C6CD000240CE003F00F02614935
:10A2F00003F03003202B51F8228028D006D8CBB1B0
:10A30000102B1ED0204609B0BDE8F083302BF9D1C8
:10A310006B6939881980072A0AD16B6828691A89FC
:10A32000214603F01DF96B682969D868FFF75EFEC6
:10A330002A6942E02A693946434609B0BDE8F0433C
:10A3400018476B6901221A702A696968F4E7BCF141
:10A35000020FD5F8149024D1042A22D804A9FFF7BB
:10A360009CFF04460028BED0069B2BB16968B9F853
:10A3700000304A899A4205D8059B7360069B002BE2
:10A38000B1D1BFE708892A6903FB002204A8C047AE
:10A3900028B1B9F800300133A9F80030E4E70446E9
:10A3A000EAE7B9F800307A899A429CD92A69398952
:10A3B000581CA9F8000003FB012269683046BBE77E
:10A3C000D2F81080474657F8043B23B909B0BDE8DE
:10A3D000F043FFF73ABF022914D104A9FFF75DFF4C
:10A3E000002880D0D8F8003069683A4604A8984719
:10A3F000044600283FF477AF069B002BF2D1059B63
:10A4000073607FE7012926D005292CD000297FF42D
:10A410006AAF0C460DF1040901340B2C3FF463AF15
:10A42000012249463046FFF7F3FD00283FF45BAFB9
:10A4300019F9013B002BEFDB0F4B049301ABCDE986
:10A44000053400230793D8F8003069683A4604A819
:10A450009847044656E7082201A9FFF7D9FD0824CA
:10A460000028E9D13FE704220DEB0201FFF7D0FD00
:10A470000424F5E788D70700979E07002DE9F047E9
:10A4800090B00446002604A8CDE90266FFF79CFCC4
:10A49000A3683BBBDDE9053404A89D78FFF7A5FC64
:10A4A0000028F7D115F0300F03D1059B1B8803B1AD
:10A4B0000134002C00F0B480630902A90022934209
:10A4C00040F0A78010AA02EB830304F01F0453F8A6
:10A4D000383CC4F120044FF0FF30E040C31A58422A
:10A4E00058410DE00DF1030301AA0DF102012046D0
:10A4F000FFF78DFE38B99DF80330002BCAD100203C
:10A5000010B0BDE8F087019F04A83946FFF7ACFC06
:10A51000002857D1B7424CD3059D059A937803F094
:10A520000F03082B7ED004A8FFF75FFC059B9D421C
:10A53000F3D14FF0FF36B7429DF8029039D3089B14
:10A54000D4F808801D68A36885B39845A0D12B680E
:10A55000D3F800A0BAF1000F08D04B463A4629467E
:10A560002046D0470028CAD0AD68ECE7D3F808A051
:10A57000BAF800309F42F7D16A6851460AA8FFF73F
:10A5800023FC6B680E9305F10C030F939AF80230CD
:10A5900003F0C003802B04BF2B1D0E9301232B73EC
:10A5A0000AAA49462046FFF791FEDBE798457FF46B
:10A5B0006FAF9DF802102046FFF747FE00287FF49A
:10A5C00067AF9CE7059B9B7813F0300F0FD1069A7D
:10A5D0003F2A0CD8510910AB03EB810102F01F0296
:10A5E0000123934051F8382C134341F8383CD4F8F8
:10A5F0000C809DF80250B8F1000F04D004AB2A463D
:10A6000039462046C04704AA29462046FFF75EFE89
:10A61000D4E751F8040B01307FF471AF01324EE7FB
:10A6200001206DE7168886E770B50C46064615468C
:10A6300011462046FFF7DAFC2A4621463046BDE89F
:10A640007040FFF71BBFF0B585B0CF680C46694678
:10A6500005461646FFF721FE68B1E06858B1A378B9
:10A6600003F03003202B32463946684605D1FFF708
:10A67000DBFF019B6B6005B0F0BDFFF7FFFEF8E765
:10A6800013B50C466946FFF73DFD60B1DDE90013E7
:10A690004A0842EAC372C9074FEA530344BFD24390
:10A6A000DB43C4E9002302B010BD37B50D4669464F
:10A6B0001446FFF7E5FF70B12B89082B0DD1DDE9BA
:10A6C0000032C4E90032DDE90001914208BF98423E
:10A6D0000CBF0120002003B030BD042B03D1009B30
:10A6E0002360DA17EFE7022B03D1BDF90030238096
:10A6F000F7E7012B03D19DF900302370F1E700202B
:10A70000E9E713B504220C460DEB0201FFF780FCCC
:10A7100008B1019B236002B010BD1146FFF7F1BFE5
:10A7200013B508220C466946FFF772FC18B1DDE943
:10A730000023C4E9002302B010BD1146FFF7F0BFAB
:10A7400010B513681F2B144607D900220830FEF7F6
:10A75000E0FC08B92023236010BD48F21450FBE749
:10A760000830FEF7B3BC0830FEF780BC831F012B16
:10A7700010B5044602D8002000F09EFF034B1B6872
:10A780001BB12046BDE81040184710BD38600020BE
:10A7900008B5074B18600020FFF7E8FF054800F0F8
:10A7A00073FF20B9BDE80840024800F0E9BD08BDCC
:10A7B000386000206DA707006CDF70476DDF7047C1
:10A7C00072DF704773DF704774DF704775DF704763
:10A7D00076DF70477ADF70477CDF70477DDF704738
:10A7E0007FDF704786DF70478FDF704790DF7047ED
:10A7F000A8DF7047AADF7047ADDF7047AEDF704754
:10A80000B0DF7047B1DF7047B5DF704762DF704778
:10A8100066DF704713DF704701460148FEF719B93C
:10A82000E8DA070070B518228CB000210DEB0200A9
:10A8300002F096FE2823089316231F4CADF806302D
:10A840000023CDF80E30CDF81230ADF816300223CB
:10A85000092606222370237159230125A2706371F2
:10A860000322FE230DF10601A0198DF818508DF872
:10A870002D500294ADF80C606570E270A371FFF783
:10A88000ADFFB8B9BDF8063026725A19E271BDF8AD
:10A890000C200A4C134402A906AA2046ADF80C303D
:10A8A000FFF78EFF30B92078FFF78EFF207829461A
:10A8B000FFF788FF0CB070BD3C6000209459002069
:10A8C00038B515490B68024613F0010022D0134831
:10A8D00082421ED0124A10884FF6FF72904213D067
:10A8E00043F004030B601321FFF772FF90B90D4D85
:10A8F000C82445F001054FF47A40A847013CFAD13D
:10A90000BDE8384001F0C8BC074B1878FFF75CFF82
:10A91000F6E7002038BD00BFC8700020D4DA070079
:10A920009659002080D9070094590020F0B503887B
:10A93000232B8BB0044635D80F2B04D8012B00F005
:10A94000F7800BB0F0BD103B132BFAD801A252F8E0
:10A9500023F000BFD5A90700F3A9070043A907000A
:10A96000D5AA070015AC070043A9070043A90700B3
:10A9700043A9070043A9070043A9070023AC070028
:10A9800043A9070043A9070043A9070043A90700FB
:10A99000FFAA070043A907000DAB070043A9070062
:10A9A000BBAA0700503B9AB2062ACAD8062BC8D8C1
:10A9B00001A252F823F000BF1FAA07003DAB070019
:10A9C00023AC070043A9070043A9070077AA0700A3
:10A9D0001DAB0700964D83882B80964B1B680BB1EF
:10A9E00001209847944928880BB0BDE8F040FFF754
:10A9F000EDBE8F4B4FF6FF721A80904B1B685A07C3
:10AA000004D4FFF70FFF08B101F0ABFD894B1B68C1
:10AA1000002B96D002200BB0BDE8F0401847884EBE
:10AA2000E288B3889A428CD18648FDF7ECFF054650
:10AA3000002886D0228A04F1120102F0BDFD1822FE
:10AA4000002104A802F08CFD08238DF810307E4B05
:10AA500006937E4B0596CDE9073504A8238AADF809
:10AA6000243000F083FC00283FF46BAF7548294682
:10AA7000FDF7EFFF65E7E188F6291CD8CB1E9B07A1
:10AA80000DD0CB1F9BB2013B5A4202F0030203F0F0
:10AA9000030301F1FF3158BF5342C91A89B2644B15
:10AAA0001888FFF7B1FE00283FF44BAF0BB0BDE8AC
:10AAB000F04001F056BDF721F1E70022808804A99B
:10AAC000CDE90422FFF792FE00283FF43AAF01F0EF
:10AAD00048FD36E7564C02230493208802AB04AAB3
:10AAE00042F605210593FFF787FE08B101F039FD15
:10AAF000002320881A468521FFF772FEE4E74C4BBD
:10AB000000F108011888FFF761FECCE7002304A9D3
:10AB10008088ADF81030FFF767FED5E7A379002BEA
:10AB20007FF40FAF424B13211888FFF751FEBAE7AD
:10AB30003F4B00211888FFF76BFEB4E7A379002B89
:10AB40003FF4FFAE022B7FF4FCAE3D4D2189AA8974
:10AB500091427FF4F6AEA27B012A7FF4F2AE4FF46D
:10AB600080320592228A324EADF81820628AADF802
:10AB70001A2004F11402079201AF298A3088049345
:10AB800002AA02930397FFF737FE60B93846FEF733
:10AB90002DFD40B940F2FD133088ADF8143004A902
:10ABA000FFF72EFECDE6002304A93088ADF814305F
:10ABB000FFF726FE014600287FF4C3AE182204A842
:10ABC00002F0CEFC237D204A8DF81030022B059533
:10ABD000069218D0062B10D0012B10D11C4B1A88CE
:10ABE0001C4B1A80637DD4F816200893012B099220
:10ABF00005D1194800F060FD01E0637D089304A8C9
:10AC000000F0B4FB9DE6124AB4F815301380114AE7
:10AC10001380F4E700231A4619468088FFF7E2FD07
:10AC200041E70023A0881A461946FFF7EBFD3AE7F3
:10AC300096590020AC70002086D90700C87000200B
:10AC4000B4700020E8DA07009DAC070019A80700DF
:10AC5000B2700020B0700020D4DA07007FB5002366
:10AC6000CDF80B308DF80F300A4BADF806109B89EC
:10AC7000ADF8083001238DF80A300DF10603CDE957
:10AC80000430054B02A91888FFF7B8FD07B05DF83E
:10AC900004FB00BFB470002096590020F0B50446B4
:10ACA00087B000210D2202A8019102F059FC2378FF
:10ACB000082B0BD1394A3A4913880988013B9BB2CA
:10ACC0001380D9B1D3B9032311802370627823781C
:10ACD0008DF805306021012A8DF804108DF80620CA
:10ACE0000ED00B2A12D100F085F98DF80700002054
:10ACF00000F07AF9042101A8FFF7B0FF07B0F0BD1A
:10AD0000062B05D0082B29D0032B27D00321F2E7EF
:10AD1000E1688DF80710D4E90123080A8DF80800CE
:10AD2000080C090E8DF80A10110A8DF80B208DF809
:10AD30000C10110C120E8DF80E201A0A8DF80F301F
:10AD40008DF810201A0C1B0E8DF80D108DF80900CF
:10AD50008DF811208DF812300F21CCE7D4E90123B2
:10AD6000C3F30741D7B2C2F30726C2F30745DCB2EB
:10AD7000C3F30720120E1B0E8DF80D108DF807700F
:10AD80008DF808608DF809508DF80A208DF80B4079
:10AD90008DF80C008DF80E300B21ACE7B070002060
:10ADA000B27000202DE9F0413C4B94B005464FF6BF
:10ADB000FF721A8001204FF659632A4602A98DF8C6
:10ADC0000A00ADF80830FFF713FD0446002861D1F2
:10ADD000334B04AA03F11007164618685968144645
:10ADE00003C40833BB422246F7D1A91C3046FFF703
:10ADF0000DFD044600284DD101461C220DA802F08D
:10AE0000AFFB9DF834300C9443F004038DF83430DC
:10AE10000223ADF80C30AB788DF80E3003238DF89B
:10AE20000630F423CDE90A44ADF82C302B464FF41C
:10AE3000885833F8040BADF8048003AF01AE08AABC
:10AE40000DA908970996FFF7D5FC044610BB0146EB
:10AE50001C220DA802F084FB18238DF83430012346
:10AE6000ADF80C30AB788DF80E3013238DF806302A
:10AE70001723CDE90A44ADF82C302B4608AA33F845
:10AE80000C0B0C940DA9CDE90876ADF80480FFF702
:10AE9000B1FC0446204614B0BDE8F081965900206C
:10AEA0008ED9070030B5324C236813F0010585B008
:10AEB00056D1304B18603048FDF78EFD029500F0FA
:10AEC000B4F800284DD12D48FFF7A4FC002848D144
:10AED00001F0A4F9002844D102A801F06FFA00287B
:10AEE0003FD102A9012001F073FA002839D102A84C
:10AEF00001F0D6FA002834D100F09EFB30B1204892
:10AF000000F08EFB236843F002032360112302A8A4
:10AF10008DF80430FFF752FC18BB9DF8093002A8E9
:10AF200001338DF80930FFF747FCD0B923689B0740
:10AF300019D513498869043182B201A8FFF74CFC86
:10AF400078B91048FFF746FC58B90F48FFF72AFFB9
:10AF500038B9FFF767FC20B9236843F00103236089
:10AF6000002005B030BD094802F034FB0749E3E793
:10AF7000C8700020AC700020E8DA070000800700ED
:10AF8000CC70002086D90700B470002075D9070066
:10AF900043690BB1C0681847704700000449054B6E
:10AFA0000022904218BF19460348FDF76CBD00BF50
:10AFB00014D6070040D60700A859002007B5009313
:10AFC00013460A4601460348FDF761FD03B05DF8EC
:10AFD00004FB00BFA859002013460A460146014859
:10AFE000FDF75CBDA8590020014B18700B2070477D
:10AFF000E8700020024B002218781A70704700BFDA
:10B00000E870002018DF704730B585B00546102283
:10B010000C466846002102F0A3FAA4086846019590
:10B020000294FFF7EFFF05B030BD1FB50023CDE957
:10B0300001330393684602230093FFF7E3FF05B053
:10B040005DF804FB4FF000534FF480521A6000206B
:10B0500070470000014B06201B681847EC70002069
:10B060000A2803D90B38C0B2FFF7BEBF70470000F3
:10B0700010B5044686B00020FDF718FD014638B132
:10B08000174A1821204606B0BDE81040FDF7F4BA73
:10B090001822684602F064FA0423124A8DF8003040
:10B0A000114B116D1B68994212D1104B186800F0BA
:10B0B00079FF8DF80100FFF7D3FFD4E901138DF874
:10B0C0000100684698470A4800F058FA06B010BDDB
:10B0D00001238DF801306846D4E901139847F5E75C
:10B0E00071B00700F8770020F0700020F4700020A5
:10B0F00055B00700F0B5044687B0162200210DF1C7
:10B10000020002F02DFA23788DF8003001220C2B7A
:10B110008DF8012000F21E819A4012F4AD7F15D106
:10B12000022B06D00C2B40F015818B4B07201B689F
:10B130009847D4E90113684698479DF80130012BE0
:10B1400000F00681844B05201B6800E1062B834A32
:10B150000AD0012B17D1237C1370012B44D0022B72
:10B160007FD000231370ADE0237C1370012B6FD0D0
:10B17000022BF6D17A4B9A6C1B6D01934FF48053DE
:10B1800002920393D5E71178012917D00229E8D15B
:10B19000013B072BCDD801A252F823F063B2070080
:10B1A00033B1070021B307002BB3070033B1070009
:10B1B00075B1070033B10700C9B20700013B072B87
:10B1C000B7D801A252F823F0E9B1070033B1070064
:10B1D00057B2070027B2070033B1070051B207008A
:10B1E00033B1070001B207005B4B03201B6898478F
:10B1F000606900F0A5FCFFF733FF8DF8010098E7C8
:10B20000A18A206900F0B4FCFFF72AFF544B8DF8A7
:10B210000100DA6B1B6C0293E3680192002B88D06B
:10B220002069984785E74F494F4800F0EFFCFFF74A
:10B2300017FF01288DF801007FF47BAF002000F09C
:10B240009DF900283FF475AF0A238DF8013070E7AF
:10B250004FF400730393424BDA6B1B6C0192029321
:10B2600067E700F0A5FC08B90823EEE762690AB9B0
:10B270000323EAE7C2F30B0333B1394B39495B6D62
:10B28000096813448B42F3D1B2F5805F01D90423DE
:10B29000DBE7334B3349586D096815188D42E3D805
:10B2A0005A64DA6C9A64186518632F4B61691B68DD
:10B2B00001F6FF710022090B1844FFF78DFE0028EC
:10B2C0003FF437AF0523C0E700F072FC0028CBD075
:10B2D000234DA18AD5E914329B1A6A6C0B44934220
:10B2E000C6D8214B2F6B1B68206905F148021F440B
:10B2F000FDF78EFAE368A28A216906463846FFF711
:10B300005DFE08B1E3688BE7A28A2B6B02961344BB
:10B310002B63A38A2A6DAE6413442B65019308E75F
:10B320000F4B9A6C02921B6DF8E70D4BD3E9140298
:10B33000596C821A8A4297D19A6C5865002120462E
:10B340005964DA64FFF794FE034B1B6804209847A6
:10B3500007B0F0BD022378E7EC7000209859002078
:10B36000F8770020F0700020F470002083681BB193
:10B37000024A1821FDF780B907207047F5B0070091
:10B3800038B50546C0B10120FFF708FE044648B9AC
:10B3900000F0C8FB00F00CFC30B9084B00201D6029
:10B3A000FFF722FE204638BD0549064800F02EFC76
:10B3B0000128F2D00324F5E70724F3E7EC7000201E
:10B3C000F0700020F4700020F8B514464FF460725D
:10B3D00005460F461E4602F0B3F818B904B1A0475F
:10B3E000002006E0002201212846FFF7F5FD08B104
:10B3F0000320F8BD4FF460723946304602F0DCF8A5
:10B4000023464FF4607231462846FFF7D7FD0028E7
:10B41000E6D0EDE7F8B5384C384F2368384E0133A5
:10B4200005D13C68236801335CD000250CE0201D69
:10B4300000225821FDF7ECF925683C682B1A5D4283
:10B440005D412368013345D000225821201DFDF7BE
:10B45000DFF9236883423DD16368012B09D00022C4
:10B46000C32104F51870FDF7D3F9D4F85C32834298
:10B4700030D14FF460729DB31F49214802F09CF80F
:10B48000396820485422043102F096F839681E4881
:10B490004FF432725C3102F08FF87468012C29D1BC
:10B4A0001A49402201F5E47002F086F818491C227E
:10B4B00001F5E47002F080F8164986F8A1420023F5
:10B4C000042201F2862086F8603286F8E23202F029
:10B4D00073F80DE035B108494FF460720848DAE7B7
:10B4E0003968FBE706484FF46072002102F038F833
:10B4F00002237360F8BD00BF00F007009C590020D4
:10B50000F8770020FC770020547800205479002040
:10B51000947900201478002070B50D4C0546002267
:10B5200058212046FDF774F9002244F8040CC32189
:10B5300004F51770FDF76CF9261FC4F858022A4667
:10B540003146044B0448BDE87040FFF73DBF00BFE3
:10B55000FC7700207874002000F0070002460248C3
:10B56000024B0068FFF730BF9C590020F8700020A4
:10B570000149FFF7F3BF00BF00F0070038B50546EB
:10B580000020FFF7C9FF044618B903492846FFF712
:10B59000E5FF204638BD00BFF877002010B5FFF763
:10B5A000FDFC044608B1032010BDFFF733FF204621
:10B5B000FFF7E4FF0028F7D0F5E7000010B5084CCE
:10B5C0004FF40072FF21204601F0CAFF2022002123
:10B5D000A4F1240001F0C4FF002344F82C3C10BD6A
:10B5E0005478002029DF704738B50C4D0446D5F853
:10B5F000643378B101330FD1002218210430FDF7F4
:10B6000007F92060214605F559700722BDE838404A
:10B61000FFF7E8BF0E2038BD0820FCE700F0070068
:10B6200008B528B103491C2201F0C6FF002008BD5F
:10B630000E20FCE764F3070010B5064C0022182129
:10B640002046FDF7E5F854F8043C1B1A58425841CF
:10B6500010BD00BF68F3070010B50A4CD4F82433BE
:10B66000D4F864231340013309D04FF4FE20FDF7D2
:10B670005BFEC92221464FF4FE20FDF783FE002029
:10B6800010BD00BFF8770020F8B5094F094CE41B46
:10B690000646E4080025A54201D10020F8BD57F870
:10B6A0003530304698470028F8D10135F3E700BF20
:10B6B000D4DA0700DCDA0700F8B5094F094CE41BBF
:10B6C0000646E40800250437A54201D10020F8BD54
:10B6D00057F83530304698470028F8D10135F3E760
:10B6E000D4DA0700DCDA070008B50C22002101F0EB
:10B6F00037FF024B00221A6308BD00BFF877002015
:10B700004FF44053074A5968914201BF986800F6C8
:10B71000FF7020F47F6020F00F0018BF4FF48050BE
:10B72000704700BFDBE5B15108B5FFF7E9FF054BF6
:10B730009B69184400F6FF7020F47F6020F00F0032
:10B7400008BD00BFF87700204FF48050704700001C
:10B750002DE9F84305460F46904699460024012CF2
:10B760002DD0022C01D11E4B30E0FFF7DDFFB8F1E8
:10B77000000F09D11B4B1B1AAB421FD3F7B9E4B220
:10B7800034BB0020BDE8F883174B1E6A731E5E426F
:10B790005E41144B1B1AAB4201D3002FEFD0DEB930
:10B7A0000134032CDBD1AB4212D217E04FF44053EB
:10B7B0005E680E4BF61A18BF0126EAE70124FFF770
:10B7C0009FFFB9F1000FF1D0064B1B1A9D4205D81F
:10B7D0000748FFF789FFD4E7AB42D0D20420D1E776
:10B7E0000040070000500700F8770020DBE5B1516A
:10B7F0001078002090F8553013F0FB0F07D190F827
:10B80000643063B1836E53B10B600120704703F065
:10B810000202DB0705D412B190F85C30A3B90F2007
:10B82000704790F85630002BF5D0836D002AEAD08F
:10B8300090F85C20002AE6D0054A006EC2F5FC2292
:10B84000904203D80344DEE70023F5E70420704765
:10B85000008007002DE9FF472F49304D8A6B304C9F
:10B86000304FDFF8D490DFF8D4A06E465C3130461C
:10B87000FEF73EFC96E80F0085E80F0000212A4BFA
:10B8800039704FF447722046C9F80010CAF800100A
:10B89000EB6001F065FE254922462846FEF7C4FE0E
:10B8A00020B90027384604B0BDE8F0873F78002F64
:10B8B000F7D094F86C3194F800801BB3B8F1000F06
:10B8C000EFD194F87231002BEBD0DAF80020D9F8E0
:10B8D00000103046FEF70CFC96E80F0085E80F00DC
:10B8E0004FF4B272414604F5BA7001F039FE1049C6
:10B8F00004F5BA722846FEF797FE0028D1D004F569
:10B90000BA7406E0B8F1000FCBD0A379002BC8D0F1
:10B910000834084B1C60C5E7F8770020487C0020FD
:10B92000607C0020787B002041B90700C4D7070065
:10B9300064D80700447C00205C7C0020587C0020F8
:10B9400030B55B68DA680D4B9A420AD1D0E9013410
:10B950000B48026812B90B490A681AB10A4B002257
:10B960001A7030BD1A4612F9015B002DFBDB23442F
:10B970009B1A02600B600122034BF1E764D80700B9
:10B980005C7C0020587C0020787B002010B54FF4B0
:10B990004052124C516800F50053A142586803D040
:10B9A000031B5842584110BD884214D11178142904
:10B9B00082BF50690A4AB0FBF2F01A7898BF0020A3
:10B9C000142A83BF5B69064AB3FBF2F30023C01A53
:10B9D00018BF0120E7E70020E5E700BFDBE5B15134
:10B9E00040420F0000B591B0FDF7B6FD684608492A
:10B9F0002022FDF7E4FD6A46064907484023FDF78B
:10BA000003FD064B01221A7011B05DF804FB00BF64
:10BA1000E0D90700FC7B00206CD70700797B002071
:10BA2000F0B5A3B007460D4614461E4678222023E3
:10BA3000002104A8029301F093FD00230393194B06
:10BA40001B780BB9FFF7CEFF2DB337BB02AB164FF8
:10BA500001931649289B0097324604A8FDF762FD22
:10BA6000E8B9402C1BD1124E22462946304601F03F
:10BA7000A3FD20213046FDF7AEFDCDE90064029B19
:10BA80000C493A4603A8FDF7DBFC002814BF05204B
:10BA9000012023B0F0BD1320FBE71620F9E70A20B0
:10BAA000F7E700BF797B00209A7B0020ACD7070026
:10BAB000BA7B0020FC7B0020F0B5ABB004460D46FD
:10BAC00016461F467822202300210CA8039301F07C
:10BAD00047FD114B1B780BB9FFF784FF2FB12146AF
:10BAE000202204A8FDF760FD04AC03AB0B4F0193CB
:10BAF0000B49009733462A460CA8FDF713FD48B9B9
:10BB000020222146384601F01BFDB0FA80F04009A2
:10BB10002BB0F0BD0020FBE7797B00207A7B002072
:10BB2000ACD7070008B5044B986B08B1FFF792FE3D
:10BB3000024B187008BD00BFF87700207C7F002002
:10BB400010B5044658B1B0F5007F0AD8064B002264
:10BB50001A70FFF733FD054B01209C6310BD0320D5
:10BB6000FCE70420FAE700BF7C7F0020F877002084
:10BB700070B50E4C0646E06BA36B42189A420D4618
:10BB800011D85C300A462044314601F015FDE36BC4
:10BB900004F140022B4429463046E363FCF738FEAB
:10BBA0002064012070BD0320FCE700BFF87700206F
:10BBB000014B1878704700BF7C7F002013B5104CF4
:10BBC00094F86C21B2B194F8D802B4F8DA2204F5F2
:10BBD000377104F5B8740B4B1B6800930A4B1B6854
:10BBE000FFF71EFF012809D1201D02B0BDE810405B
:10BBF00000F0DCB9114610460434ECE702B010BD89
:10BC0000607C0020587C00205C7C00202DE9F04105
:10BC10001F4BD3E90E329A4206460D4633D1DFF868
:10BC2000788098F800704FB1FFF77EFD194B3060B7
:10BC300029461868BDE8F041FFF7DCBDFFF70AFEB2
:10BC400018B3FFF7BBFF0128376004462F6017D1F8
:10BC5000104B29461868FFF7CDFD012804460FD187
:10BC600003463A4628683946FFF772FD38B9FFF7B0
:10BC70005BFD88F8004030602046BDE8F081042478
:10BC8000FFF79CFCF8E70824F6E70524F4E700BF7B
:10BC9000F8770020447C00207C7F00200123723054
:10BCA000FFF70ABF13B50446084623781146032B55
:10BCB00022D8DFE803F002050F18012002B010BD02
:10BCC0000022D4F80140FCF7A3FD844214BF0020F9
:10BCD0000120F3E70A4600230146601C02B0BDE8DC
:10BCE0001040FFF7E9BE009103464022611C00208E
:10BCF000FFF796FE0128E9E70020DFE72DE9F04392
:10BD0000A3B005460E461446002178221F4604A81B
:10BD100020239DF8AC800393DDF8A89001F020FC6F
:10BD200041220021284601F01BFCB6F89430A342C2
:10BD300082BF442303FB046393F8968085F8008058
:10BD4000B8F1030F1CD8DFE808F009020F1F00222A
:10BD500049463846FCF75CFDC5F801004A463946BD
:10BD60002846FFF79FFF0CE003AB01936B1C009389
:10BD70000B494B463A4604A8FDF7D4FB0028EDD00A
:10BD8000002023B0BDE8F08344235C4333199A3488
:10BD9000B3F898203119681C01F00EFCDEE700BFF3
:10BDA000ACD707002DE9F047774B1D68A4B00446D7
:10BDB000884616460A4601462846FFF76FFF0028C8
:10BDC00000F0D88095F855704FBB4FF00109CDE9D0
:10BDD000008923463A46294613A8FFF78FFF20B96A
:10BDE000002E40F0CC800525C6E076B3412267489E
:10BDF00013A901F0E1FB664BC3F82C901F626A683F
:10BE00009A60002241462046FCF702FD604BC3E9E0
:10BE100009800125FFF7D2FB5D4B9C6418E04122AD
:10BE2000002102A801F09CFB07F00109412200213A
:10BE300013A807F0020701F093FBB9F1000F0BD133
:10BE4000002F66D1002E40F08280514B01255D61AC
:10BE5000284624B0BDE8F08704F500524D4B5068E9
:10BE6000D5F858A09842BBD10AF5FF530AF6FF71E6
:10BE7000C1F30B011F335B1A91689942B0D34FF4A1
:10BE800040535968814205D118781178102831D86B
:10BE9000102937D82046FFF779FD002836D1012335
:10BEA000CDE900A300222346294602A8FFF726FF7A
:10BEB000002895D0AA6D7FB3A318A8EB0202002139
:10BEC000CDE9002113A84A462946FFF717FF0028AD
:10BED00086D0002EB9D0B9F1000F1FD12C4EAA2365
:10BEE000412213A906F2E220F36201F065FB6B68C0
:10BEF000F36086E710291B6906D912699A427FF41C
:10BF00006FAFC7E70023F8E70022F7E7002FC6D19D
:10BF100066E742462346D2E7002E96D02046FFF73A
:10BF200035FD10B11C48FFF7DFFB1C48DFF86090BF
:10BF3000412202A901F040FBAB6D67B9A522C9F807
:10BF40002C20C9F83430002E3FF47FAF59E7104B56
:10BF5000AA22DA6255E7AC22C9F82C2013A94122A3
:10BF600009F2E220C9F8343001F026FB6B68C9F809
:10BF70000C30E8E717251EB9FFF720FB68E7052519
:10BF80000748FFF7B1FB45E7447C0020997A002081
:10BF9000F8770020DBE5B15110780020587A0020B6
:10BFA0001C7800200122FFF7FDBE0000F0B590F8DC
:10BFB00054300546002B56D090F85500032852D82F
:10BFC00095F86E30032B4AD12B7A002B4BD0EB68BF
:10BFD000342B46D14FF44054244A61682B8A914255
:10BFE00031D143B16A69AAB1DBB205F11001002277
:10BFF000D6B29E4201D3122018E0A68951F8047FE0
:10C00000B74202F10102F3D12B7823B301286B6808
:10C0100006D911E058B9012BEDD12B781BB36B6811
:10C02000134A906898428CBF10200120F0BD01286F
:10C03000E1D02B78BBB16B680D4AD06883428CBFCE
:10C0400001201020F2E713B16B69002BD3D12B78BC
:10C05000002BD9D1CFE7012818BF0F20E6E7142025
:10C06000E4E71120E2E70F20E0E700BFDBE5B15194
:10C07000F877002038B1054B0360054B436001237E
:10C080000372002070470E20704700BFBBC007003E
:10C0900095C0070069B10B78022B0CD1022804D09F
:10C0A00003280CBF11200820704703230B700020C9
:10C0B00070470E2070470820704710B50C4681B1BC
:10C0C0000B78012B06D00ED9033B012B8CBF11201E
:10C0D000082010BDFFF788FA0028FAD10223237048
:10C0E000F7E70E20F5E70820F3E7000070B5134BE3
:10C0F000134A0C21D21AB2FBF1F2816911F8025CE9
:10C1000004462DB900690021914204D1012010E0BC
:10C110004FF0FF30F7E71E68AE420CD1461C02D04C
:10C120005E68864207D19D68D4E90001D4E9022304
:10C13000A847206070BD01310C33E5E7DCDA070069
:10C14000E8DA07001EF0040F0CBFEFF30880EFF3EE
:10C150000980FFF7CBBF00BF10DF704711DF7047CA
:10C1600013B5044609496846FCF7CCFE019808B9A6
:10C1700002B010BDD0E900312046984718B168469A
:10C18000FCF7C9FEF2E71120F2E700BFB8D90700BB
:10C1900013B5044607496846FCF7B4FE019B0BB98A
:10C1A00002B010BD2046D3E9002190476846FCF755
:10C1B000B2FEF3E7ACD90700084B9A6822B11A68BF
:10C1C00022F480021A607047054B4FF48002C3F8D6
:10C1D0008020BFF34F8FBFF36F8F7047E859002067
:10C1E00000E100E00B4991F81623EC2352091341BA
:10C1F000DB0706D5084B9A683AB94FF480030B6009
:10C20000704742F2020000F0ACB91A6842F48002B2
:10C210001A60704700E100E0E8590020F7B5194FB7
:10C220003C786CBB184E012520463570FFF798FF0F
:10C23000112821D02046FFF7ABFF144B8DF80340A7
:10C24000186801900DF10300FCF7A8FA104901A845
:10C25000FFF782FF0446B0FA80F0400938709DF87D
:10C260000300FCF7BFFA44B90A4B34701C70FFF7A7
:10C27000B9FF2846FFF78CFF0024204603B0F0BD2D
:10C280000824FAE77F7F00207D7F0020C4D90700C3
:10C290005DC507007E7F0020F7B5144E33781BB3D1
:10C2A000134D01202870FFF75BFF112818D00220E2
:10C2B000FFF76EFF00270DF107008DF80770FCF700
:10C2C0006DFAFFF74BFF04469DF807003770FCF747
:10C2D00089FA34B903202C70FFF76EFFFFF758FF7F
:10C2E0000024204603B0F0BD0824FAE77F7F002039
:10C2F0007D7F0020054B1B7833B1054B1B780BB1BC
:10C30000FFF7CABFFFF78ABF082070477D7F002074
:10C310007F7F0020014B1878704700BF7F7F00208F
:10C3200007B508496846FCF7EDFD019B13B903B05A
:10C330005DF804FBD3E9002090476846FCF7EBFD6D
:10C34000F3E700BFA0D90700FFF7EABF60DF70473F
:10C3500069DF704761DF704730B5134DADF5017D82
:10C360004FF4FA740DF1020103A8ADF80240FFF793
:10C37000F1FF70B9294601A8FCF7C4FD029B002B10
:10C38000F0D003A8D3E90021904701A8FCF7C3FD32
:10C39000F4E7052805D00DF5017DBDE8304000F03B
:10C3A000E0B80DF5017D30BDC8D90700024B1B7800
:10C3B0000BB1FFF7D1BF7047807F002018B1034B4E
:10C3C0000360002070470E20704700BF68590020AE
:10C3D000F0B5074685B00D4600295DD02F4B0B60A8
:10C3E0000C22002101A801F0BBF8012606232A68CF
:10C3F000ADF8083001A920208DF804708DF8066092
:10C40000FFF7A6FF0C22002101A801F0A9F80024E3
:10C410002A688DF8056001A94020ADF80640FFF7B5
:10C4200097FF0C22214601A801F09AF8F7232A6809
:10C43000ADF8063001A923208DF80470FFF788FFBE
:10C440000C22214601A801F08BF82A688DF80460BF
:10C4500001A93046FFF77CFF0C22214601A801F01C
:10C460007FF84FF4B0632A68019301A9A120FFF778
:10C470006FFF0C22214601A801F072F89DF80430EC
:10C480002A6864F3000301A9A0208DF80430FFF7A7
:10C490005FFF204605B0F0BD0E20FBE76859002085
:10C4A00008B5FFF753FF10B9014B01221A7008BD00
:10C4B000807F00204BDF70471FB50E4C01A8FFF7AF
:10C4C000F9FF70B9214602A8FCF71CFD039B002B65
:10C4D000F4D00198D3E90021904702A8FCF71BFD96
:10C4E000F4E7052804D004B0BDE8104000F039B8E6
:10C4F00004B010BDD4D90700BFF34F8F0549064BD8
:10C50000CA6802F4E0621343CB60BFF34F8F00BFF1
:10C51000FDE700BF00ED00E00400FA0508B50728BC
:10C520001BD8DFE800F004121A1A1A041A040120BA
:10C53000FCF7D3FE0020FCF7A9FE0120FCF7A6FEC5
:10C54000BDE808400220FCF7ADBE0120FCF7AAFEC2
:10C55000BDE808400220FCF799BE08BD08B5FFF70A
:10C56000CBFF08B5FFF7C8FF08B5FDF7B9FB4FF4DF
:10C5700080510020FDF779F908B1FFF7BDFF0548AC
:10C58000C0F5FC21FDF771F90028F6D10248FDF74E
:10C5900081F8F2E7008007001DC507008B180244F0
:10C5A0008B4200D1704713F8010D02F8010DF7E737
:10C5B000C3F10803DB0070B501330446002003A576
:10C5C0005B1920C940CAAD1920C4184720C940CA08
:10C5D000754120C420C940CA754120C420C940CA41
:10C5E000754120C420C940CA754120C420C940CA31
:10C5F000754120C420C940CA754120C420C940CA21
:10C60000754120C4404170BD0000000000000000E2
:10C61000C3F10803DB0070B50133002403A500BF9C
:10C620005B1920C940CAAD1B20C0184720C940CAA9
:10C63000B54120C020C940CAB54120C020C940CA68
:10C64000B54120C020C940CAB54120C020C940CA58
:10C65000B54120C020C940CAB54120C020C940CA48
:10C66000B54120C06441B4FA84F0400970BD00BFF8
:10C670002DE9F04F08B4F8CA04B451F8042BA3FB19
:10C68000028940F8048B4FF0000AE4FB629A4FF0F5
:10C69000000BE5FB62AB4FF0000CE6FB62BC4FF019
:10C6A000000EE7FB62CE51F8042B4FF00008E3FBCD
:10C6B000628940F8048BE4FB629AE5FB62ABE6FB1F
:10C6C00062BCE7FB62CE51F8042B4FF00008E3FB9D
:10C6D000628940F8048BE4FB629AE5FB62ABE6FBFF
:10C6E00062BCE7FB62CE51F8042B4FF00008E3FB7D
:10C6F000628940F8048BE4FB629AE5FB62ABE6FBDF
:10C7000062BCE7FB62CE51F8042B4FF00008E3FB5C
:10C71000628940F8048BE4FB629AE5FB62ABE6FBBE
:10C7200062BCE7FB62CE40F8049B40F804AB40F8E3
:10C7300004BB40F804CB40F804EB0CBC052B00F024
:10C740001E810C68A0F11400A1F11401A2F11402E1
:10C7500052F804EB4FF0000550F8046BE4FB6E5602
:10C7600052F804EB50F8047BE4FB6E6752F804EBDC
:10C7700050F8048BE4FB6E7852F804EB50F8049BFD
:10C78000E4FB6E8952F804EB50F804ABE4FB6E9ABC
:10C79000A0F1140052F8044B51F804EB4FF0000CD8
:10C7A000E4FB6EC540F804CB51F804EBE4FB6E5695
:10C7B00040F8045B51F804EBE4FB6E6740F8046B4F
:10C7C00051F804EBE4FB6E7840F8047B51F804EB7D
:10C7D000E4FB6E8940F8048B51F804EBE4FB6E9A9D
:10C7E000A0E80006062B00F0CA800C68A0F1180033
:10C7F000A1F11801A2F1180252F804EB4FF0000564
:10C8000050F8046BE4FB6E5652F804EB50F8047BCE
:10C81000E4FB6E6752F804EB50F8048BE4FB6E788F
:10C8200052F804EB50F8049BE4FB6E8952F804EBD9
:10C8300050F804ABE4FB6E9A52F804EB50F804BBDA
:10C84000E4FB6EABA0F1180052F8044B51F804EB76
:10C850004FF0000CE4FB6EC540F804CB51F804EB3C
:10C86000E4FB6E5640F8045B51F804EBE4FB6E67A2
:10C8700040F8046B51F804EBE4FB6E7840F8047B5D
:10C8800051F804EBE4FB6E8940F8048B51F804EB9B
:10C89000E4FB6E9A40F8049B51F804EBE4FB6EABAA
:10C8A000A0E8000C072B6AD008B40C68A0F11C00AB
:10C8B000A1F11C01A2F11C0252F804EB4FF000059B
:10C8C00050F8046BE4FB6E5652F804EB50F8047B0E
:10C8D000E4FB6E6752F804EB50F8048BE4FB6E78CF
:10C8E00052F804EB50F8049BE4FB6E8952F804EB19
:10C8F00050F804ABE4FB6E9A52F804EB50F804BB1A
:10C90000E4FB6EAB52F804EB50F804CBE4FB6EBCD6
:10C91000A0F11C0052F8044B51F804EB4FF0000357
:10C92000E4FB6E3540F8043B51F804EBE4FB6E5633
:10C9300040F8045B51F804EBE4FB6E6740F8046BCD
:10C9400051F804EBE4FB6E7840F8047B51F804EBFB
:10C95000E4FB6E8940F8048B51F804EBE4FB6E9A1B
:10C9600040F8049B51F804EBE4FB6EAB40F804ABD9
:10C9700051F804EBE4FB6EBCA0E8001808BCBDE86D
:10C98000F08F002310B51C465AB2914200DC10BD56
:10C9900040F823400133F7E710B500231A465CB294
:10C9A000A14203DCB2FA82F0400910BD50F82340E6
:10C9B00001332243F3E74A11012350F8220001F02A
:10C9C0001F018B40184070474B1E10B55BB2041D11
:10C9D0001A0603D45A1E54F8221071B101335BB207
:10C9E00083B103F18042013A50F82210002231B99C
:10C9F000013B02EB431210B210BD1346E8E74908B1
:10CA00000132F4E71846F7E710B500235CB2A24202
:10CA100000DC10BD51F8234040F823400133F5E716
:10CA200010B5013A52B2130601D5002010BD50F8DE
:10CA3000224051F822309C4205D802F1FF32F2D256
:10CA40004FF0FF30F2E70120F0E700EB8101002317
:10CA5000884200D3704751F8042D43EA52030B601B
:10CA6000D307F5E770B59DF910601D4633460446BF
:10CA7000FFF79EFD30B9324621462846FFF7D0FF2A
:10CA8000012807D033462A4621462046BDE870409B
:10CA9000FFF7BEBD70BD2DE9F04FB5B004AC9DF9F8
:10CAA000F85001901F4620462B46FFF7E1FD24ABCE
:10CAB00029463846CDE90234FFF786FFC0EB8514DE
:10CAC00024B2002C2146B8BF04F11F01634203F0D9
:10CAD0001F0341F3471104F01F0614A858BF5E421C
:10CAE000FFF74FFF002E4FEA81002DDD14AB00222F
:10CAF0001844C6F1200E1346AB421AD314AB03EB15
:10CB0000850300936F1E34AB4FEA45084FEA850951
:10CB1000012603EB8707002C53DA34AB03EB8606C0
:10CB2000019856F8C81C2A46FFF76EFF35B0BDE8DD
:10CB3000F08F57F823C00CFA06F10A4340F8042B93
:10CB400001332CFA0EF2D7E714AB2A4639461844C3
:10CB5000FFF75AFFD2E75AF8C83C53F8202034AB0D
:10CB600003EB80030CF1010C53F8803C0B44D31A07
:10CB700034BF4FF0010B4FF0000B9A425EF8C82C07
:10CB800042F8203018BF59464FFA8CF04045E2DB9E
:10CB9000731A5E42294614A85E41FFF756FF09F159
:10CBA000D0036B44009853F8802C57F8803C2946FA
:10CBB00043EAC273013C47F8803C24B2FFF745FFCB
:10CBC000A9E734AB4FF0000CC6F1010E614603EB50
:10CBD000860A03EB8E0ED7E730B51C4691B00546AA
:10CBE00093F900306846FFF743FDD4F8AC3069464E
:10CBF0002846984711B030BD13460A46FFF7ECBFF0
:10CC0000F0B5082289B0FFF7FFFECB6A03930B6BE8
:10CC100004934B6B05938B6B0693CB6B07930C467E
:10CC200006460027134669466A466846CDE90177FD
:10CC30000097FFF7BDFC082305466A46314630469B
:10CC4000FFF7B6FC236B0393636B0493A36B05930D
:10CC5000E36B0544CDE906376A4608236946684612
:10CC6000FFF7A6FC082305446A4631463046FFF725
:10CC70009FFC236A0093636A0193A36A0293A36BE8
:10CC80000693E36B0793054408236A463146304612
:10CC9000CDE904770397FFF78BFC636A0093A36ADF
:10CCA000A26B0193E36A02930492636BE26B0393BA
:10CCB000CDE90523236A0793054408236A463146D4
:10CCC0003046FFF775FCE36A0093236B0193636BB7
:10CCD0000293236A0693A36A0793054408236A46CE
:10CCE00031463046CDE904770397FFF791FC236B7B
:10CCF0000093636B0193A36B0293E36B0393636AEB
:10CD00000693E36A07932D1A08236A463146304694
:10CD1000CDE90477FFF77CFC636B0093A36B019371
:10CD2000E36B0293236A0393636A0493A36ACDE9D6
:10CD30000537236B07932D1A08236A463146304680
:10CD4000FFF766FCA36B0093E36BCDE90137636AE1
:10CD50000393A36A0493E36ACDE90537636B0793F2
:10CD60002D1A08236A4631463046FFF751FC2D1A2A
:10CD70000D4C0FD435B9082231462046FFF750FE3E
:10CD800001280FD00823224631463046FFF740FCE9
:10CD90002D1AEFE70823224631463046FFF708FCFC
:10CDA0002D18F7D409B0F0BD24DA0700F0B5154608
:10CDB00089B01C4607460E461A4629466846FFF7C4
:10CDC0001BFF23466A4639463846FFF705FF2346D0
:10CDD0002A4669466846FFF7FFFE23466A46314603
:10CDE0003046FFF7F9FE09B0F0BD2DE9F0471E46C9
:10CDF000B3F9023013F11F0448BF03F13E0465117B
:10CE0000DC1D48BF03F10E04E41094424FFA85F98B
:10CE100028BF144688464946FFF7B3FD22464146DF
:10CE20000746FFF7BBFBB6F90220B2EBC40F4FEA8F
:10CE3000C4031FD29B1A07EB85040021C3F1200510
:10CE4000A7420ED324364A4639463046FFF7E8FD5E
:10CE500001280FD04B4632463846BDE8F047FFF771
:10CE6000D7BB54F8040D20FA03F20A43226000FAFB
:10CE700005F1E5E7BDE8F08770B59DF910601D4646
:10CE800033460446FFF7C4FB38B133462A462146F1
:10CE90002046BDE87040FFF78BBB70BD2DE9F04721
:10CEA00093F9006092B00446894610463146154613
:10CEB0001F46FFF771FD002840F091803A46494631
:10CEC00002A8FFF799FE3B4602AA21460AA8FFF7EF
:10CED00083FE02A908463A46FFF78EFE3B462A46E5
:10CEE00049464846FFF778FE07F104083A462946C6
:10CEF0002846FFF781FE43462A46214620460096F3
:10CF0000FFF7B0FD43462A46294628460096FFF71C
:10CF1000A9FD43462A46214628460096FFF7ACFF66
:10CF20003B462A4621462046FFF756FE4346224608
:10CF3000214628460096FFF795FD434600962A466F
:10CF400021462046FFF78EFD2368DB074AD533468E
:10CF5000424621462046FFF72BFB314682462046BB
:10CF6000FFF773FD06F18043013B54F8232042EAAA
:10CF7000CA7244F823203A4621462846FFF73CFE71
:10CF800043460AAA294628460096FFF775FF4346FE
:10CF90000AAA294628460096FFF76EFF0AA9084606
:10CFA00043462A460096FFF767FF3B460AAA2146FA
:10CFB0002046FFF711FE02AA43461046214600967E
:10CFC000FFF75AFF324629462046FFF71DFD494626
:10CFD0002846FFF719FD02A94846FFF715FD12B0D4
:10CFE000BDE8F08731462046FFF72FFDC3E72DE966
:10CFF000F04115468AB004460E461C22002103A8C3
:10D0000000F0AEFA2F1D95F9008003232A46314621
:10D0100020460293FFF7F0FD3B4602AA2146204638
:10D02000CDF80080FFF728FF2B46324621462046E8
:10D03000FFF7D2FDCDF800803B4605F18402214682
:10D040002046FFF70FFD0AB0BDE8F0812DE9F0475B
:10D050008AB01446DDF848A055461F4615F9046B02
:10D060000096804689462B460246214602A8FFF7D5
:10D0700003FF02A952460846FFF7BEFD534602AA27
:10D0800041464046FFF7A8FD534602AA21462046E6
:10D09000FFF7A2FD2B464A46394638460096FFF771
:10D0A000EBFE5246394602A8FFF7A6FD02A92B4621
:10D0B000424608460096FFF7DFFE02A92B462246AD
:10D0C00008460096FFF7D8FE2B46424621462046EA
:10D0D0000096FFF7D1FE5346224649464846FFF7E1
:10D0E0007BFD2B4602AA414620460096FFF7C4FE70
:10D0F0005346224639463846FFF76EFD2B464A46D0
:10D10000394638460096FFF7B7FE324602A9204658
:10D11000FFF77AFC0AB0BDE8F08770B50368DB075B
:10D120000546144604D4BDE870401146FFF78DBC97
:10D1300013460A460146FFF73BFA214606462846B3
:10D14000FFF783FC46B104F18044013C55F82430DC
:10D1500043F0004345F8243070BDF0B50F46A1B050
:10D1600006461946384615461C46FFF715FC28B1F9
:10D17000304621B0BDE8F040FFF703BC22463946F7
:10D180006846FFF741FC294608A8FFF73DFC10A8B8
:10D190002146FFF7F6FB012318A81093FFF7F1FBD8
:10D1A000224608A96846FFF73BFC30B9224610A981
:10D1B0003046FFF729FC21B0F0BD009BDA0709D407
:10D1C00021466846FFF741FC2246294610A8FFF792
:10D1D000A4FFE5E7089BDB0707D4214608A8FFF773
:10D1E00034FC2246294618A8F1E7002823461CDD16
:10D1F00008AA69466846FFF70BFA21466846FFF71A
:10D2000024FC224618A910A8FFF70AFC002805DA1A
:10D2100010A923462A460846FFF7CAF910A9234653
:10D2200018AA0846FFF7F4F9CEE76A4608A8FFF700
:10D23000EFF9214608A8FFF708FC224610A918A814
:10D24000FFF7EEFB002805DA18A923462A46084610
:10D25000FFF7AEF918A9234610AA0846FFF7D8F938
:10D26000BFE700000048704720DA07002DE9F04FC3
:10D27000EDB0CDE90310769E1946B6F9023096F965
:10D28000017096F9005013F11F0848BF03F13E08E2
:10D2900048F3471808F1FF3B24AB002443F82B4028
:10D2A0006CAB03EB8B034CA892463A4643F8804C98
:10D2B00043F8604CFFF772F93A46394454A8FFF737
:10D2C0006DF929464CA8FFF767FB0746002840F098
:10D2D000D38054A8FFF760FB0446002840F01B8170
:10D2E00006F1240942464CA94846FFF799FB01285C
:10D2F00040F0C280424654A94846FFF791FB0128FE
:10D30000069040F0B9800CAF43464A461CA8FFF790
:10D3100024FF52463846039947F82B403346FFF71F
:10D3200064FD394638464B461CAACDF80080FFF70D
:10D33000B2FB0DF5B87A4B461CAA4CA914A8CDF83F
:10D340000080FFF7A8FB2A4650460499FFF75CFBD4
:10D35000AB000793049B0AEB850B03EB8501584652
:10D36000FFF752FB06F14403194634A80393FFF775
:10D370004BFB039BA90059183CA8FFF745FB331D45
:10D38000514634AA1CA800950593FFF775FD5B462E
:10D3900052463CA934A80096FFF758FE1CA908463F
:10D3A0002B46321DFFF7D9FE1CAA5946504633467C
:10D3B000FFF7FCFC039B0993049B08944146384605
:10D3C000CDE90A3AFFF700FB4146824614A8FFF771
:10D3D000FBFA8245B8BF82461FFA8AFA0AF1FF318A
:10D3E00009B238460391FFF7E6FA0399074614A8F5
:10D3F000FFF7E1FA003818BF0120003F18BF0127EE
:10D4000047EA40070DF1200B2A465BF8271024A8B5
:10D41000FFF7FAFAAB0019442CA8FFF7F5FA2946F2
:10D420001CA8FFF7AEFA069B1C93AAF1020A0FFA9A
:10D430008AFABAF1000F23DA1CA90846059A2B468E
:10D44000FFF78BFE33461CAA2CA924A8FFF7AEFCDD
:10D45000424624A94846FFF7E3FA012804D0434690
:10D460004A460846FFF7D4F8013D6DB24CAA2B0698
:10D4700048D5B4FA84F4640920466DB0BDE8F08F55
:10D4800033461CAAD6F8A4702CA924A8B847514644
:10D490000CA8FFF790FA5146074614A8FFF78BFA3D
:10D4A000003818BF0120003F18BF012747EA400796
:10D4B00008AB53F8271011B32A4634A8FFF7A4FA93
:10D4C000079B3CA81944FFF79FFA014633461CAA64
:10D4D00034A8FFF76BFC059B009534AA24A944A847
:10D4E000FFF7CAFC2CAB24AA3CA934A80096FFF78E
:10D4F000ADFD1CA9334644AA0846FFF76DFB0AF1AF
:10D50000FF3A94E724AB52F8251053F825304B40EE
:10D510001C43013DABE73C46AEE7000008B5064BB7
:10D52000044613B10021AFF30080044B1B6803B124
:10D530009847204600F056F800000000847F002045
:10D5400010B501390244904201D1002005E0037872
:10D5500011F8014FA34201D0181B10BD0130F2E7B2
:10D5600002440346934200D1704703F8011BF9E7D8
:10D5700070B50D4D0D4C641BA4100026A64209D1B8
:10D580000B4D0C4C00F030F8641BA4100026A64292
:10D5900005D170BD55F8043B98470136EEE755F8C4
:10D5A000043B98470136F2E7A0590020A05900201B
:10D5B000A0590020A45900200A44914200F1FF33F1
:10D5C00000D1704710B511F8014B03F8014F91429B
:10D5D000F9D110BD034613F8012B002AFBD1181A0C
:10D5E00001387047FEE700BFF8B500BFF8BC08BCC3
:10D5F0009E467047F8B500BFF8BC08BC9E46704711
:10D600000000000001000000010100000101010113
:10D6100000000000F58A0700198B0700298B07001E
:10D62000398B07008D8B0700018B0700058B0700E6
:10D63000098B07000010000004000000010000003A
:10D64000A58C0700858C0700758C0700B58E070038
:10D65000698E0700478C07004B8C0700518C070030
:10D66000001000000400000001000000982F8A4212
:10D6700091443771CFFBC0B5A5DBB5E95BC2563924
:10D68000F111F159A4823F92D55E1CAB98AA07D83C
:10D69000015B8312BE853124C37D0C55745DBE725F
:10D6A000FEB1DE80A706DC9B74F19BC1C1699BE4DF
:10D6B0008647BEEFC69DC10FCCA10C246F2CE92D6F
:10D6C000AA84744ADCA9B05CDA88F97652513E9893
:10D6D0006DC631A8C82703B0C77F59BFF30BE0C69A
:10D6E0004791A7D55163CA0667292914850AB72728
:10D6F00038211B2EFC6D2C4D130D385354730A65C5
:10D70000BB0A6A762EC9C281852C7292A1E8BFA29B
:10D710004B661AA8708B4BC2A3516CC719E892D103
:10D72000240699D685350EF470A06A1016C1A41986
:10D73000086C371E4C774827B5BCB034B30C1C3985
:10D740004AAAD84E4FCA9C5BF36F2E68EE828F7444
:10D750006F63A5781478C8840802C78CFAFFBE905E
:10D76000EB6C50A4F7A3F9BEF27871C6480028000C
:10D770000020400065D207001112131400000000C1
:10D780000338FDD870470000B9A107005FA107006A
:10D79000ABA607001BA707003BA70700ABA007002D
:10D7A00069A0070047A607000000000067A7070060
:10D7B00061A7070041A707002000000078000000D3
:10D7C00000000000010017000400FCFF68010000D9
:10D7D00034D80700020017000400FCFFAC01000071
:10D7E000F4D7070000000000000000000000000067
:10D7F00000000000010007000000000068010000B8
:10D8000034D8070002000100000000000100000001
:10D8100000000000030005000100000042000000BD
:10D8200000000000000000000000000000000000F8
:10D8300000000000010011000100FFFF01000000D6
:10D8400000000000020017000200FEFF640100005B
:10D8500064D8070000000000000000000000000085
:10D8600000000000010011000400FCFF04000000A3
:10D8700000000000020011000400FCFF0400000092
:10D8800000000000030021000400FCFF0400100061
:10D8900000000000040011000100FFFF0100000073
:10D8A00000000000050011000200FEFF040000005F
:10D8B00000000000060011000400FCFF040000004E
:10D8C00000000000070011000400FCFF040000003D
:10D8D00000000000080017000200FEFF2400000006
:10D8E00044D90700090010000100FFFF01000000FB
:10D8F00074D907000A0027000200FEFF440003005D
:10D9000014D9070000000000000000000000000023
:10D910000000000001000100000000000100000004
:10D9200000000000020005000100000042000000AD
:10D9300000000000000000000000000000000000E7
:10D9400000000000010001000000000001000000D4
:10D95000000000000200050001000000220000009D
:10D9600000000000000000000000000000000000B7
:10D9700000000000004466755461726700000000FA
:10D980000338FDD870470C000C000000580250EA24
:10D99000DA308883B89F604F15F30000C98E00000D
:10D9A00014DB070024DB0700080000000CDB070085
:10D9B00014DB07000800000004DB07000CDB070095
:10D9C0000800000001000007FCDA070004DB070084
:10D9D0000800000024DB07002CDB07000800000023
:10D9E000ED7C3D224D5C7B9C25D70D3E63AA2F2606
:10D9F0003C6AF2BFD10A756708AEC1D13887FD898C
:10DA0000A41DA8501D2DB199C870A6FB004C95957A
:10DA100036A343DFF8C74CEBEECCAFF50ECA0D0FC3
:10DA200008200001FFFFFFFFFFFFFFFFFFFFFFFFD9
:10DA300000000000000000000000000001000000E5
:10DA4000FFFFFFFF512563FCC2CAB9F3849E17A7ED
:10DA5000ADFAE6BCFFFFFFFFFFFFFFFF0000000085
:10DA6000FFFFFFFF96C298D84539A1F4A033EB2DF4
:10DA7000817D0377F240A463E5E6BCF847422CE1E0
:10DA8000F2D1176BF551BF376840B6CBCE5E316B24
:10DA90005733CE2B169E0F7C4AEBE78E9B7F1AFEE8
:10DAA000E242E34F4B60D2273E3CCE3BF6B053CC34
:10DAB000B0061D65BC86987655BDEBB3E7933AAAD0
:10DAC000D835C65A9DCE0700EFCF070001CC07001E
:04DAD0000000000052
:08DAD400A5AE0700C1A8070080
