:0200000270008C
:1080000000000120F9820700218307002383070075
:10801000258307002783070029830700000000004D
:10802000000000000000000000000000D5C00700B4
:108030002D830700000000002F8307003183070015
:10804000338307003383070033830700338307003C
:10805000338307003383070033830700338307002C
:10806000338307003383070033830700338307001C
:10807000338307003383070033830700338307000C
:10808000319D0700338307003383070033830700E4
:108090003383070033830700DDC207003383070003
:1080A00033830700338307003383070033830700DC
:1080B0003383070033830700000000000000000046
:1080C00033830700338307003383070033830700BC
:1080D000B1990700338307003383070000000000D5
:1080E0000000000000000000000000000000000090
:1080F0000000000000000000000000000000000080
:10810000000000000000000000000000000000006F
:10811000000000000000000000000000000000005F
:10812000000000000000000000000000000000004F
:10813000000000000000000000000000000000003F
:10814000000000000000000000000000000000002F
:10815000000000000000000000000000000000001F
:10816000000000000000000000000000000000000F
:1081700000000000000000000000000000000000FF
:1081800000000000000000000000000000000000EF
:1081900000000000000000000000000000000000DF
:1081A00000000000000000000000000000000000CF
:1081B00000000000000000000000000000000000BF
:1081C00000000000000000000000000000000000AF
:1081D000000000000000000000000000000000009F
:1081E000000000000000000000000000000000008F
:1081F000000000000000000000000000000000007F
:108200000348044B834202D0034B03B11847704725
:108210000C5A00200C5A00200000000005480649B6
:10822000091A891001EBD171491002D0034B03B137
:10823000184770470C5A00200C5A0020000000001C
:1082400010B5064C237843B9FFF7DAFF044B13B19E
:108250000448AFF300800123237010BD205A002092
:1082600000000000B4DE070008B5044B1BB1044950
:108270000448AFF30080BDE80840CFE700000000ED
:10828000245A0020B4DE0700A3F5803A704700BFEF
:10829000154B002B08BF114B9D46FFF7F5FF002142
:1082A0008B460F461148124A121A05F029FA0C4B58
:1082B000002B00D098470B4B002B00D09847002094
:1082C000002104000D000B4805F0F8F805F02AF92C
:1082D0002000290004F00CF905F0F6F80000080071
:1082E000000000000000000000000120205A0020D3
:1082F0007C800020F1D407000649074A074B9B1AEF
:1083000003DD043BC858D050FBDC00F039F8FFF720
:10831000BFFF000018DF070068590020205A002026
:10832000FEE7FEE7FEE7FEE7FEE7FEE7FEE7FEE725
:10833000FEE7FEE7044B1868421C04BF034B1878A5
:10834000831F58425841704730010010E00F00F081
:10835000064B1868083B1B78062B05D1C0F30310A9
:10836000C31E58425841704700207047E80F00F084
:10837000024AD2F80034002BFBD0704700E00140E5
:1083800010B5FFF7D7FF28B1824B834A1B68C3F3B0
:1083900004231360FFF7DCFF10B1804B804A1A60A2
:1083A000FFF7C8FF28B17F4B7F4A1B68C3F34233F6
:1083B0001360FFF7CDFF20B17C4AD36823F08073B0
:1083C000D360FFF7B7FF40B14FF080430022C3F8FE
:1083D0000C21C3F81021C3F83825FFF7B9FF10B1FD
:1083E000734B03221A60FFF7B3FF40B1714B0522B4
:1083F0001A6001229A6700229A603F225A606E4BEF
:108400001A68511C0BBF6D4B6D4B1A781B6802BF6D
:1084100008331B68C3F30313062A49D1033B012B1E
:1084200046D94FF08052674BD2F80414C3F8201598
:10843000D2F80814C3F82415D2F80C14C3F8281580
:10844000D2F81014C3F82C15D2F81414C3F8301550
:10845000D2F81814C3F83415D2F81C14C3F8401518
:10846000D2F82014C3F84415D2F82414C3F84815E0
:10847000D2F82814C3F84C15D2F82C14C3F85015B0
:10848000D2F83014C3F85415D2F83414C3F8601578
:10849000D2F83814C3F86415D2F83C14C3F8681540
:1084A000D2F84014C3F86C15D2F84424C3F87025F0
:1084B000FFF740FF28B1444B444A1B6803F04F03C9
:1084C0001360FFF737FF48B14FF08043D3F8002423
:1084D000D20744BF6FF00102C3F80024364B1B687B
:1084E000062B09D1364B1B68033B022B81BF384A50
:1084F000136843F480631360364AD2F8883043F43B
:108500007003C2F88830BFF34F8FBFF36F8F2A4BD1
:108510001B68062B0CD12A4B1B68033B032B81BF26
:108520004FF01023D3F808224FF08043C3F85825AA
:108530004FF01023D3F80022002A03DBD3F80432D3
:10854000002B22DA24490123C1F80435FFF710FF7C
:108550004FF010201524C0F80042FFF709FFC0F8C3
:108560000442FFF705FF0023C1F80435FFF700FFC1
:10857000BFF34F8F1749194BCA6802F4E0621343E7
:10858000CB60BFF34F8F00BFFDE7154B154A1A6054
:1085900010BD00BF240300104035014074C00740E7
:1085A0000DF0ADBA440200103C050040F0ED00E0D3
:1085B000A00500401056004030010010E00F00F010
:1085C0003401001000C0004058020010E40E0040CA
:1085D0003C17004000ED00E000E001400400FA0517
:1085E000685900200090D0034B1C30B5DB000446D6
:1085F00012F003009BB20DD1074D2A601A44074BBD
:108600001A60074B1870074B1870074B1C80074BFC
:10861000198030BD0720FCE7445A0020405A002052
:108620003C5A00204C5A0020485A00204A5A002048
:108630002DE9F3472B4D2B888B4206460C461746F7
:108640004CD34FF000080DF107008DF8078000F0C3
:1086500087F8254B254A18781178CBB22449098828
:108660008B4238BF0133C0B238BF5FFA83F8404550
:108670002ED092F800801378DBB2994286BF013386
:10868000DBB2002313709DF8070000F08DF84FF661
:10869000FF73984524D0DFF860A0DAF800304FEA85
:1086A000C80903EB090243F83870A6B19CB1114B1D
:1086B00028881B68224608FB0030314604F086FFFC
:1086C000DAF800304B4400209C8002B0BDE8F0870F
:1086D0004FF6FF78D7E700209080F6E70920F4E70F
:1086E0000420F2E7485A00204C5A00203C5A00204F
:1086F0004A5A0020405A0020445A0020F8B5124C33
:10870000124D264622782B789A4200D1F8BD237864
:108710000F48104A078812680F48DBB219B202EB03
:10872000C10C006852F83120BCF8041003FB0700AC
:1087300090470A4A23781288DBB29A4286BF0133F7
:10874000DBB200233370DDE74C5A00203C5A002096
:10875000485A0020445A0020405A00204A5A00201B
:1087600070B5EFF3108672B60C4A946801239CB979
:1087700093600B4B0B4DD3F8801029401160C3F868
:108780008050D3F8841051604FF0FF32C3F884203A
:10879000047006B962B670BD0370FAE7F07C002081
:1087A00000E100E0FC06FFBD10B5084B9A685AB125
:1087B00050B9EFF3108172B6054A1C6814605C680A
:1087C0005460986001B962B610BD00BFF07C002013
:1087D00000E100E030B53AB11368DB430A4D0144D3
:1087E000814204D1D84330BD4FF0FF33F6E710F893
:1087F000012B5340082213F0010418BF2C46013A04
:1088000084EA5303F7D1EBE72083B8ED10B561B1EB
:10881000B2FBF3F403FB1424A4B244B9C0E900147E
:1088200084608281C381204610BD0E20FCE70920B0
:10883000FAE782B050E8022FC188B2EB324F4FF016
:10884000000317BF92B241EA014142EA014104E04C
:108850004268B2EB324F08BF012340E80212002AFF
:10886000E8D18DF807309DF80730002B0CBF1120A0
:10887000002002B0704737B550E8013F9DB2C4896F
:1088800025448489A54228BF2D1B0489A54202BF27
:10889000BFF32F8F002207E0C5EA030540E801542B
:1088A000002CE9D14FF001028DF803200193019BC8
:1088B0009DF803200B6002F0FF0322B10B880068D3
:1088C000184403B030BD1846FBE70A884B889A422B
:1088D00009D150E8012FC2EA024240E80123002BEF
:1088E000F7D1012070470020704737B550E8023FAC
:1088F0001FFAA3F5C488A54202BFBFF32F8F002241
:108900000DE0C48925448489A54228BF2D1BC3EAF4
:10891000054540E80254002CE8D14FF001028DF8E3
:1089200003200193019B9DF803200B6002F0FF03DD
:1089300022B14B880068184403B030BD1846FBE7ED
:108940000A884B889A4209D150E8022FC2EA224293
:1089500040E80223002BF7D1012070470020704728
:1089600050E8002F42EA010340E8003C9CF0000F71
:10897000F6D11046704750E8003F03EA010240E894
:10898000002C9CF0000FF6D1104670470121FFF734
:10899000E7BF0021FFF7EFBF10B590B1D0E9012389
:1089A00001689B1ADBB20A60013BDBB2FF2B026855
:1089B00002D10020107110BD11684C1C14600B70A6
:1089C000F2E70E20F7E737B5054600240DF1070062
:1089D0008DF80740FFF7C4FE2A68696813688B4268
:1089E00010D9591E116013F8014C2A8AEB6802FB5A
:1089F00004342A68AB6811685B1A1179DBB29942BA
:108A000038BF13719DF80700FFF7CEFE204603B074
:108A100030BD37B5054600230DF107000C468DF833
:108A20000730FFF79DFE2A681368591C1160E9683A
:108A3000641A298AB4FBF1F41C709DF80700FFF753
:108A4000B3FE03B030BD01600B681146184710B487
:108A50000468E468A4465DF8044B604710B40468F9
:108A60002469A4465DF8044B6047000070B508B166
:108A70000368ABB90C4D0D4C0026641B1423B4FBEA
:108A8000F3F4B44201D1002009E02B6813B9013698
:108A90001435F6E7DB69284698470028F7D070BD03
:108AA000DB69BDE8704018470C5A0020205A0020AE
:108AB000014B436000207047F4D907000846704717
:108AC00000207047024B1868003018BF0120704723
:108AD000505A002008B50248FFF75BFF002008BD90
:108AE000505A002008B510461A4604F06FFD0020C9
:108AF00008BD00002DE9F043814687B014480F46B9
:108B000016469846FFF742FF0446F0B90546AE42C6
:108B100015D10F48FFF73DFFD9F808305BB10222AD
:108B20008DF800200022CDE90127CDE90326CDF8FC
:108B3000148068469847204607B0BDE8F08307EBED
:108B4000053000F0C3FB0135E1E71124F3E700BF76
:108B5000505A00202DE9F041804686B011480F465A
:108B600016461D46FFF712FF0446C8B9AA0831464B
:108B7000384600F0D9FB0B48FFF70BFFD8F8083058
:108B800053B101228DF800200C9A0592CDE90147DE
:108B9000CDE9036568469847204606B0BDE8F081F8
:108BA0001124F9E7505A002029DF704728DF704769
:108BB00070B50568AB6886B004460E4673B11422E2
:108BC0000021684604F09CFDA36805932379019673
:108BD00033B1012B0ED0AB686846984706B070BD24
:108BE00001238DF8003023690293E36803936369DE
:108BF0000493F0E702238DF80030E3681B0302932F
:108C0000F5E708467047002070470000024B187ACD
:108C1000003018BF01207047405C0020034B187AD9
:108C20000122B0FA80F05A7440097047405C00207D
:108C300008B510461A4604F0C9FC002008BD000023
:108C400008B514220021044804F05AFD0348FFF738
:108C5000F0FD002008BD00BF405C0020305C00201B
:108C600010B5094C094B43602046FFF78FFE48B909
:108C700003F01AFB1C2320744FF4EE7204490548DC
:108C8000FFF7C4FD002010BD405C002020DA070083
:108C9000545A0020305C002070B5234C234E237AB8
:108CA00025463BB922492348FFF71FFE306008B92B
:108CB000606070BD022334682B72237973B1012B7D
:108CC00022D020460321FFF773FF00232B726B6035
:108CD00017491848BDE87040FFF732BED4E90523B4
:108CE000D21A142A28BF1422D4E903109208012AA8
:108CF00038BF012219441844FFF756FF50B111281C
:108D0000DFD101232B72D4E7D4E903031844FFF722
:108D10004DFFF3E72B7C002BCBD10146BDE8704023
:108D2000022000F009B800BF405C0020585C002021
:108D3000545C0020305C002038B5831E012B43D8E2
:108D4000224C237A002B3FD0022B09D103282ED0AE
:108D50001F4B00221B68E2601A793AB1012A20D029
:108D6000637C6BBBBDE83840FFF796BFD3E90512C3
:108D70008D1A142D94BF521914329A619142EFD179
:108D800002284FF0000308BF19462372104B18BF8A
:108D90000D211868FFF70CFF0E490F48FFF7D0FDB3
:108DA000DEE71A6901321A615B699A42E7E7E36814
:108DB0000133082B01D8E360D2E70023E360DFE74B
:108DC000BDE8384003F060BA38BD00BF405C002009
:108DD000585C0020545C0020305C002000F0FD0353
:108DE000012B08D1044B00225A74421E50425041BC
:108DF0001874FFF751BF7047405C002010B5064C57
:108E0000201DFFF7C3FD28B9637C1BB9BDE81040E6
:108E1000FFF742BF10BD00BF405C00202DE9F341C9
:108E200080460D460F4801A916461F46FFF723FD51
:108E30000446A8B11C22002104F062FC2D0B012382
:108E4000237101A9C4F80080A760E5606661054848
:108E5000FFF73BFDFFF7D2FF002002B0BDE8F08135
:108E60000420FAE7305C00202DE9F743814688466C
:108E7000104801A917461E46FFF7FDFC0446B0B195
:108E80001C22002104F03CFC00250A9BA36001A9E0
:108E90002571C4F80090C4E9037866610548FFF7BE
:108EA00014FDFFF7ABFF284603B0BDE8F0830420B4
:108EB000FAE700BF305C002001600B6843604A683D
:108EC000934204BF002343607047436843B1026884
:108ED00091680B4443605268934204BF002343608F
:108EE000704700002DE9F04FC9B008AA01F1400514
:108EF00014464B780E781B0443EA0663CE7833435E
:108F00008E78043143EA06238D4244F8043BF0D1C5
:108F10001024916B16464FEAF14383EA714383EACA
:108F20009123716A366852F8045F31440B444FEA6A
:108F3000B54181EAF51181EAD50101340B44402C99
:108F4000D363E6D1D0E914E30093836D0193C36D3D
:108F50000293036E0393436E0493836E0593C36E73
:108F60000693DDE9057BDDE9031CDDE901592B4BA7
:108F7000009E079374464FF00008079B53F8042B9C
:108F800007934FEAF12383EAB11383EA716A08ABCE
:108F900053F828301A440AEB020327EA010A01EACF
:108FA0000C028AEA02021A444FEA743A86EA05037E
:108FB0005A448AEAB40A06EA050B234083EA0B0303
:108FC0008AEAB45A08F101089A44B8F1400F02EB5A
:108FD0000903BB465244A94619D172440265009A5E
:108FE00022444265019A32448265029A2A44C2654B
:108FF000039A1A44049B02660B444366059B634430
:109000008366069B3B44C36649B0BDE8F08F674664
:1090100035468C46264619461446AEE74CDA07001C
:1090200030B5E0B10F4A104900240025C0E91245CF
:10903000C0E914120D4C0E4A0E4DC0E916420E4AFC
:10904000C0E918520D4A826602F17452A2F5230259
:109050000023A2F692420364C266184630BD0E2079
:10906000FCE700BF85AE67BB67E6096A72F36E3C3A
:109070003AF54FA57F520E518C68059BABD9831FE3
:10908000F8B50446F0B10AB90020F8BDD1B10D46DB
:109090008E180027B542F7D0236C15F8012BE25447
:1090A0000133402B2364F5D121462046FFF71AFFF8
:1090B000D4E9123113F5007341F10001C4E9123112
:1090C0002764E7E70E20E0E770B50D461646044634
:1090D000002877D0002975D0026C8021372A02F150
:1090E000010381544FF0000242D8382B3BD1D4E920
:1090F0001223206C0821E1FB0023104612BAE26320
:109100001A0A194684F83B3084F83A201A0C1B0ED0
:10911000C4E9120184F83920214684F83830204609
:10912000FFF7E0FE691E76B30023E26EDA4001F835
:10913000012FA26EDA400A71626EDA400A72226E64
:10914000DA400A73E26DDA400A74A26DDA400A75F9
:10915000626DDA400A76226DDA400833202B0A77F6
:10916000E3D1002070BDE2540133BEE7E254013385
:109170003F2BFBD921462046FFF7B4FE38220021C1
:1091800004F0BEFAB3E71823226DDA4001F8012F8C
:10919000626DDA400A71A26DDA400A72E26DDA405D
:1091A0000A73226EDA400A74626EDA400A75A26EA1
:1091B000DA400A76E26EDA40083B13F1080F0A77CC
:1091C000E2D1CEE70E20CDE743689B68184708B58B
:1091D000436808305A7900F0C4F9002008BD2DE931
:1091E000F0430D469BB0084699469046FFF7ECFFCA
:1091F0006E6874794C4528BF4C4607462246414666
:1092000002A800F0A3F9727922990AA800F0A9F93E
:1092100000970AAB224602A905F1080003F0E6FF19
:10922000002848F2425018BF00201BB0BDE8F08370
:10923000044B1A5C012393404FF0A042C2F80C3556
:10924000704700BF58DB0700044B1A5C01239340B2
:109250004FF0A042C2F80835704700BF58DB070046
:1092600008B50020FFF7F0FF0120FFF7EDFF022017
:10927000FFF7EAFF0320BDE80840FFF7E5BFC2079C
:1092800008B501460CD54FF0A0430322C3F844278C
:10929000C3F84827C3F84C27C3F85027FFF7E0FF6F
:1092A0008B070AD54FF0A0430C22C3F83427C3F82C
:1092B0003827C3F83C27C3F8402708BD024AD2F834
:1092C0000034002BFBD0704700E001400A4908B58C
:1092D0000223C1F80435BFF36F8FBFF34F8FC1F87E
:1092E0000805FFF7EBFF0023C1F80435BFF36F8FCC
:1092F000BFF34F8F08BD00BF00E0014010B5094C1F
:109300000123C4F80435BFF36F8FBFF34F8F0160A3
:10931000FFF7D4FF0023C4F80435BFF36F8FBFF30A
:109320004F8F10BD00E001400E4B10B50124C3F873
:109330000445BFF36F8FBFF34F8F01EB8204401AD8
:10934000A14208D1074B0022C3F80425BFF36F8F59
:10935000BFF34F8F10BD431851F8042B1A60FFF76D
:10936000ADFFEDE700E0014028B139B10023C1E9CC
:1093700000301846704748F21050704748F21350BA
:10938000704730B1036848F240508B4208BF00205C
:10939000704748F21050704728B148F2115091427E
:1093A00008BF0020704748F21050704770B506465D
:1093B0000C461D46FFF7D8FF50B9B3794AB1AB420E
:1093C0000AD111462046FFF702FF08B9044B23607B
:1093D00070BD48F21050FBE748F21150F8E700BFAB
:1093E0007052464D2DE9F0470C4607460F4920467E
:1093F00015469846DDE90869FFF7C3FF98B9636829
:109400005A79494652003046FFF7C6FF58B945B170
:10941000089643462A4621463846BDE8F047FFF7FE
:10942000DEBE48F21050BDE8F08700BF7052464DD6
:1094300010B5044638B149B141600B68984708B986
:10944000044B236010BD48F20150FBE748F2105076
:10945000F8E700BF6E524648F0B4134648B10768BB
:10946000094EB7420AD161B12AB14368F0BC5B68CA
:10947000184748F201531846F0BC704748F20253AF
:10948000F9E748F21053F6E76E524648F0B460B17F
:1094900007680C4EB7420CD171B143681568DC689F
:1094A000A5420CD39B68F0BC184748F20150F0BCB1
:1094B000704748F20250FAE748F21350F7E748F2D3
:1094C0001450F4E76E5246482DE9F0410446174621
:1094D0009846DDE90656FFF7ABFF60B942463946CC
:1094E0002046FFF7B9FF30B9324629462046BDE88D
:1094F000F041FFF7CBBFBDE8F0810000F8B50A4F9F
:109500000A4C0B4DE41B0121E40829700026A642F9
:1095100003D102232B700020F8BD57F8363098474E
:109520000028F9D10136F2E7B8DE0700B8DE0700FF
:109530005C5C002001390144814200D2704703780D
:109540000A7800F8012B01F80139F5E7013A0244E5
:109550000139824200D2704711F8013F02F8013907
:10956000F7E770B516460D46FFF7F0FF3246A9192A
:109570003044BDE87040FFF7E9BF38B50D460446FA
:10958000FFF7D8FF29466019BDE83840FFF7D2BF82
:10959000007800F00100704741DF7047014B012265
:1095A0001A70704780600020BFF34F8F0549064B4B
:1095B000CA6802F4E0621343CB60BFF34F8F00BF71
:1095C000FDE700BF00ED00E00400FA05024B034890
:1095D00000221A7001F0A6BF80600020A995070044
:1095E000831E10B50446052B09D8DFE803F01603E7
:1095F00003080F0F0B494FF4F02000F037FA0A4B25
:109600001B686BB12046BDE810401847074B08485F
:1096100000221A7001F086FFF1E701F0C9FEEEE7C3
:1096200010BD00BFCD950700846000208060002041
:10963000A99507000020704738B55D4B18600020E1
:1096400001F086FF044648B900F0E8FA012800F06E
:10965000A58041B221B1022800F0A680032038BDC8
:109660004FF08043D3F8004414F4803449D04FF4D1
:109670008032C3F800240C464E4D2B6A012B4ED08D
:109680004FF4F02400F060FB4B4A20211820FEF735
:10969000ABFF08B102F029FF4FF08043D3F800245C
:1096A000D20742BFD3F8002442F00102C3F80024DD
:1096B000424B1A6802F0F902B12A02BF1A6802F09E
:1096C0004E021A603B4B9A6D012A06D10020986524
:1096D00001F0FCFE08B102F008FFFFF7ABFF002825
:1096E000BCD12046364900F0C1F9364801F03CF8BB
:1096F0000028B3D100F04EFBFFF700F8FFF74CFF56
:10970000F8E7D3F8202502F0F902A92A03BFD3F81D
:10971000202502F05602C3F820250124ACE743F2CD
:1097200004031A68284B9A4209D001F0C1FFAA69C4
:10973000014694B1254802F093FA90B9A0E76A6B0C
:109740001CB995F86032012BEFD04FF480512048BE
:1097500002F086FA0028E8D192E795F8A132012BB1
:10976000E8D14FF08043D3F80034D90788D4134BA5
:109770001B6803F0F903B12B82D0AB6D012B3FF4D2
:109780007FAF01F041FF00287FF468AF114B1870E4
:10979000114801F0C7FE00F023F85FE70D4B0F48BA
:1097A0001C7001F0BFFE59E74FF4A0246AE700BF28
:1097B00084600020FC7C0020605C00201C050040D0
:1097C000CD950700E1950700DBE5B1519D7F0020B5
:1097D0005C7F0020806000209D950700A995070010
:1097E00008B5074B4FF0FF32C3F88020C3F8802143
:1097F00001F000FC4FF48050BDE8084000F032B8A2
:1098000000E100E080F3088808470346C1F30B003D
:1098100070B520BBB3F5FE2F21D81B0B013903EB2C
:10982000113101264FF08044994200D270BD03F0FF
:109830001F025D0906FA02F2032D05D8DFE805F0E4
:109840000206090CC4F800260133EDE7C4F804262B
:10985000FAE7C4F81026F7E7C4F81426F4E707205F
:10986000E4E7000010B504461448C0F5FE21FFF7F8
:10987000CCFF08B102F039FE01F01AFF104B9969D4
:1098800001F6FF7121F47F6121F00F0101440020F6
:10989000FFF7BBFF08B102F028FEEFF305830023BA
:1098A000D4E9000183F3148883F3108883F31188CB
:1098B00083F31388BDE81040FFF7A4BF00800700C2
:1098C000FC7C002037B56FF07F42154C057BD4F847
:1098D00004358A4228BF0A46891A13444A1E942A2C
:1098E00023F07F4305F5A8729BBF963B96314160FC
:1098F000416044F822300B4B4FF4F86043F0010311
:109900009847094BAA00134400221A601B68019370
:10991000019B4FF48033AB40C4F8043303B030BD37
:109920000040024060DB07004041024018490A78CD
:1099300084B0002A29D14FF08043A020D3F81834F6
:10994000DB035EBF134B01221A60134A002313602E
:1099500012680392039A114A136012680292029AE3
:109960000F4A136012680192019A0E4A82F824038A
:10997000102050600C4A0D48C2F8083501230360DE
:1099800002201360C2F804030B7004B0704700BFDC
:109990008C6000200800004000410240404102402D
:1099A0004441024000E100E0004002400840024023
:1099B00013B5284B1A6842B127490A6801320A6078
:1099C00000221A601B680093009B244B1A68A2B106
:1099D00000221A6022481B68027B0193019B4FF40E
:1099E000803393401F4AC2F808334168044601BBE4
:1099F0008168D9B9236803B198471B4B1A6832B301
:109A000000221A6016481B68027F0193019B4FF4E5
:109A100080339340134AC2F808334169044659B170
:109A2000103002B0BDE81040FFF74CBFFFF74AFF0F
:109A3000E0E7FFF747FFE0E7816911B11030FFF77A
:109A400041FF23691BB102B0BDE81040184702B0C6
:109A500010BD00BF04410240886000204041024028
:109A60006C590020004002404441024070B50B4B4D
:109A70001C68227B4FF480339340094A0E46C2F89B
:109A80000833054640B1FFF751FF266029462046BE
:109A9000BDE87040FFF716BF70BD00BF8C590020B5
:109AA0000040024070B5074B1C680E46A06005469A
:109AB000FFF73CFF266029462046BDE87040FFF7CF
:109AC00001BF00BF90590020014B01221A7070475E
:109AD0008D60002070B5154DEA6A6E6AAC6CAC2AD8
:109AE00013D16B6B1C44F61AEB6AAC2B13D03246C5
:109AF00021460F4803F03AFDA8B100F04BF931467A
:109B00002046BDE8704001F057BA002CECD101F0BE
:109B1000E5FD0446E8E73246A4F58041044803F039
:109B200025FD0028E3D1002070BD00BFFC7C002093
:109B3000008007002DE9F74F80468946A9EB08040D
:109B4000240B02F6FF76154600F0FEF8082C28BF1D
:109B500008242303DFF860B00193360B0DB92B46C0
:109B600026E0B4422CBFB246A2464FF00002514656
:109B700040462CBF2F46019F01F006FA0346B8B9B4
:109B8000FA1C22F003024946404601F0EFF9034671
:109B900070B9DBF83030ED1BB844B9441F44CBF842
:109BA000307001F0C5FCA6EB0A0603460028D5D0AC
:109BB000184603B0BDE8F08FFC7C002010B501F022
:109BC0009DFD154A42F20403916CCC5803F1A34366
:109BD00003F5471303F2D7539C4218D1D2E90C3254
:109BE000934216D0884204D10020BDE8104001F015
:109BF0009FBCD21A02F6FF7222F47F6222F00F029B
:109C000019441844FFF796FF0028EDD010BD03203B
:109C1000FCE70020FAE700BFFC7C002070B5264C72
:109C2000E36AA52B33D003D8012B0BD0002070BDE5
:109C3000AA2B30D0AC2BF9D1FFF7C0FF48BBFFF700
:109C400049FF26E0A66C656A01F032FD864229D103
:109C500001F02EFD00222946FEF7BCFDA36A9842C2
:109C600002BF0123C4E90703A5610025134801F0E1
:109C700013FD134B134800221A7001F059FC68B908
:109C800075B1236A012B14BF01200220CFE7FFF733
:109C900095FF0125EAE7FFF71DFFE6E70320C6E78A
:109CA0000120C4E7236BEA1AF1181844FFF742FFBA
:109CB0000028DAD1CCE700BFFC7C0020207D00200A
:109CC0008D600020C99A070008B540F6F870036857
:109CD000013302D10749FFF711FB40F6FC7003681E
:109CE000013305D14FF4FC21BDE80840FFF706BB66
:109CF00008BD00BF008007000A4AD2F800347BB1DB
:109D000009480023D2F80815D940C90748BF03F510
:109D1000C07103F1010348BF42F82100072BF1D1C4
:109D2000704700BF000001403546526EFFF7E4BFA8
:109D3000044B002282B01A601B680193019B02B0A1
:109D4000704700BF0001014038B50E4C2278BAB907
:109D50000D4BD3F800248AB1D3F80455FFF7CCFF9C
:109D600040F61650A842B8BF28460849A0F54860FA
:109D7000FFF798FE064B4FF480321A6001232370E0
:109D800038BD00BF8E600020000001402D9D0700FF
:109D900000E100E0034BD3F800340BB1FFF7ACBF98
:109DA000704700BF000001400023C0E90232C0E953
:109DB00000118B881A440261B1F906301A444261DD
:109DC0000888003018BF0120704710B5426811881C
:109DD0000346002939D002F110014160148A2CB9E0
:109DE000C2680168FFF7E0FF204610BD9078118936
:109DF00000F03004302C1BD1947C04F03004302C63
:109E00001DD190881969091A19610021907810F004
:109E1000300F02BF986801309860908A0844196931
:109E200001441961B2F91620114459610120DCE79F
:109E300000F0F004202C02D150894143E6E700F005
:109E4000C000802808BF0421E0E70846CDE770B5D0
:109E5000456804460E4663681A88B24204D19B786E
:109E600003F00F03082B07D12046FFF7AEFF63680E
:109E7000AB42F0D1002070BD0120FCE743681A44DA
:109E8000426011B101399A4201D10120704713F8A3
:109E9000010B01F8010FF6E72DE9F3418368044651
:109EA000884623B90027384602B0BDE8F081036830
:109EB00001220DF10701984707460028F2D0A36858
:109EC0009DF80750013B2A06A3601AD505F07F05CF
:109ED0000726A368002BE5D0236801220DF10701B6
:109EE000204698470028DDD0A3689DF80720013B55
:109EF000A36002F07F03B3401D43130606F107067B
:109F000002D4C8F80050CEE7232EE2D1CAE770B5DC
:109F10004268927802F00F01082986B003461FD1EB
:109F200003691C6800260CB906B070BD236826734F
:109F30009D68626829466846FFF736FF63680493A8
:109F400004F10C030593AB7803F0C003802B08BF2A
:109F5000231D684608BF0493FFF7D9FFA468E2E712
:109F600012F0C00120D102F0300010280ED15A6941
:109F700011705A6818699378D46803F00F03072B9F
:109F800009D10146204600F017F8CDE79006F0D53C
:109F90005B691980C8E71289214614B103F016FBEA
:109FA000C2E703F0ADFBBFE78029BDD10069002106
:109FB00092060160B8D5EBE77FB50A4601466846D0
:109FC000FFF7F2FE30B16846FFF7A1FF6846FFF7E2
:109FD000FCFEF7E707B05DF804FB000030B504466F
:109FE00085B01546A9B90268114B9A4211D0102DBF
:109FF00006D82A4669462046FFF7F0FF05B030BD77
:10A00000102269462046FFF7E9FF0028F6D0103DF0
:10A01000EDE7A368AB4201D20020EFE723682A46B0
:10A02000204698470028F7D0A3685D1BA560E5E7A8
:10A030007D9E0700F7B50E4601A907461546FFF7B6
:10A040002BFFA8B1019A0123D3184FF0000404D2CA
:10A05000B17801F0C001802901D1204608E03189A2
:10A060009942FAD329463846FFF7B8FF019BEC54D2
:10A0700003B0F0BD73B50E4601A905461446FFF7BF
:10A080000BFFB8B1019BB3F5803F07D202229A18AB
:10A0900004D2B17801F0C001802901D1002009E08B
:10A0A00031899142FAD321461A4621F8023B2846CB
:10A0B000FFF794FF02B070BD10B5034C8260002220
:10A0C000C0E90041C26010BD7D9E07002DE9F34745
:10A0D0000025064688462F462C46B36843B33368AE
:10A0E00001220DF107013046984708B3B3689DF887
:10A0F00007C0013B0CF07F025FFA82F9C4F1200136
:10A10000B360A4F1200309FA03F329FA01F109FA73
:10A1100004F20B431CF0800F45EA020547EA0307EF
:10A1200004F1070402D1C8E9005702E0462CD4D15B
:10A13000002002B0BDE8F08773B50C4669461646AC
:10A14000FFF7C4FF68B12389082B0CD1DDE9004576
:10A15000C6E90045DDE90023AB4206BFA24201206B
:10A16000002002B070BD042B04D1009B33601C465C
:10A170000025EFE7022B4FF0000004D1009B338055
:10A180009CB20546E6E7012BEBD1009B337003F050
:10A19000FF04F6E737B50D4669461446FFF796FF0C
:10A1A00030B12A89082ADDE9003103D1C4E9003140
:10A1B00003B030BD042A18464FEAE37108D123608A
:10A1C0001A460B468B4206BF824201200020EFE771
:10A1D000022A04D11BB223801AB2D317F2E7012A54
:10A1E00003D15BB223705AB2F7E70020E0E7F7B57E
:10A1F0000C46002119702170116001A9074615460F
:10A200001E46FFF749FE30B9BB6813B9012333700E
:10A21000002003B0F0BD01990029F7D0CB0801F070
:10A2200007012B602170F4E713B5044605291FD8F8
:10A23000DFE801F0030F151E1E1C012201A92046B4
:10A24000FFF7CCFE18B19DF90430002BF5DB02B00E
:10A2500010BD082200212046FFF7C0FEF7E701A944
:10A26000FFF71AFE0028F2D0019AF3E70422F1E783
:10A270000020ECE773B50D4601A90446FFF70CFE7C
:10A28000064618B90026304602B070BD94E80F00AB
:10A2900085E80F0001998A42F4D3A960A3685B1A8C
:10A2A000A360F0E72DE9F0435568AB7813F0C004E4
:10A2B00089B006468C46174603D0402C6AD000244D
:10A2C0000AE003F00F025E4903F03003102B51F84F
:10A2D000228020D004D8CBB1204609B0BDE8F0835D
:10A2E000202B1ED0302BF7D17B6929881980072AB3
:10A2F0000AD17B6838691A89214603F001FA7B6824
:10A300003969D868FFF758FE3A6940E03A6929464A
:10A31000C0470446E0E77B6901221A703A69796810
:10A32000F6E7BCF1020FD7F8149024D1042A22D802
:10A3300004A9FFF79FFF04460028C0D0069B2BB15D
:10A340007968B9F800304A899A4205D8059B73604C
:10A35000069B002BC0D0B2E708893A6903FB0022B4
:10A3600004A8C04728B1B9F800300133A9F800307B
:10A37000E4E70446EAE7B9F800306A899A429ED9D0
:10A380003A692989581CA9F8000003FB0122796861
:10A390003046BDE7D2F81080454655F8043B13B966
:10A3A000FFF742FFB5E7022914D104A9FFF762FFC6
:10A3B000002884D0D8F8003079682A4604A8984745
:10A3C000044600283FF47BAF069B002BF2D1059B8F
:10A3D000736081E701292BD04CB24CB105297FF481
:10A3E0006EAF04220DEB0201FFF7F8FD042424E018
:10A3F0000DF1040901340B2C3FF461AF01224946F1
:10A400003046FFF7EBFD00283FF459AF19F9013B47
:10A41000002BEFDB0B4B049301ABCDE9053400239C
:10A420000793D8F8003079682A4604A8984770E75F
:10A43000082201A9FFF7D2FD08240028EAD13EE74F
:10A4400068DB07007D9E07002DE9F04F91B00446C0
:10A45000002604A8CDE90266FFF7A6FCA3683BBB73
:10A46000DDE9053404A89D78FFF7AFFC0028F7D19B
:10A4700015F0300F03D1059B1B8803B10134002C6C
:10A4800000F0A9806309002202A9934240F09C8059
:10A4900010AA02EB830304F01F04C4F120044FF060
:10A4A000FF3053F8383CE040C31A584258410DE0A1
:10A4B0000DF1030301AA0DF102012046FFF797FEFB
:10A4C00038B99DF80330002BCAD1002011B0BDE887
:10A4D000F08F019904A8FFF7BAFC002850D1019B26
:10A4E000B3427DD3059D059A937803F00F03082BA3
:10A4F0007FD004A8FFF769FC059B9D42F3D14FF084
:10A50000FF36019FB7426BD3089B9DF80290D4F8A9
:10A5100008801D684FF0010AA368002D5DD09845A2
:10A520009CD12B68D3F800B0BBF1000F08D04B468C
:10A530003A4629462046D8470028C6D0AD68EBE702
:10A54000D3F808B0BBF800309F42F7D16A6859468B
:10A550000AA8FFF729FC6B680E9305F10C030F9313
:10A560009BF8023003F0C003802B04BF2B1D0E9319
:10A570000AAA85F80CA049462046FFF793FEDBE7C0
:10A58000059B9B7813F0300F0FD1069A3F2A0CD809
:10A59000510910AB03EB810102F01F02012393402C
:10A5A00051F8382C134341F8383CE5682DB104AB21
:10A5B0009DF8022001992046A84704AA9DF80210A0
:10A5C0002046FFF76FFE10E051F8225001357FF46E
:10A5D0007DAF013259E7012078E798457FF43EAF1F
:10A5E0009DF802102046FFF71FFE00287FF436AFCB
:10A5F0006BE7168885E770B50C460646154611468A
:10A600002046FFF7D9FC2A4621463046BDE8704077
:10A61000FFF71ABFF0B585B00C46CD68694607460E
:10A620001646FFF727FE68B1E06858B1A37803F03B
:10A630003003202B32462946684605D1FFF7DBFF61
:10A64000019B7B6005B0F0BDFFF7FEFEF8E7D3B5D8
:10A650000C466946FFF73AFD80B1DDE9001300279B
:10A660004A0801F0010642EAC37256EA07014FEABE
:10A6700053031CBFD243DB43C4E9002302B0D0BD67
:10A6800037B50D4669461446FFF7E1FF68B12B89DF
:10A69000082B0CD1DDE90001C4E90001DDE900234C
:10A6A0008B4206BF82420120002003B030BD042B44
:10A6B00003D100982060C117F0E7022B04D1BDF947
:10A6C0000000208000B2F6E7012B04D19DF90000C4
:10A6D000207040B2EFE70020E7E713B504220C46F4
:10A6E0000DEB0201FFF77AFC08B1019B236002B079
:10A6F00010BD1146FFF7F1BF13B508220C4669469D
:10A70000FFF76CFC18B1DDE90023C4E9002302B0B7
:10A7100010BD1146FFF7F0BF10B513681F2B14468C
:10A7200007D900220830FEF7CFFC08B920232360A8
:10A7300010BD48F21450FBE70830FEF7A1BC08300A
:10A74000FEF76EBC831F012B10B5044602D8002013
:10A7500000F08AFF034B1B681BB12046BDE8104088
:10A76000184710BD9060002008B5074B1860002006
:10A77000FFF7E8FF054800F05FFF20B90348BDE898
:10A78000084000F0C9BD08BD9060002045A7070043
:10A790006CDF70476DDF704772DF704773DF7047A3
:10A7A00074DF704775DF704776DF70477ADF704778
:10A7B0007CDF70477DDF70477FDF704786DF704743
:10A7C0008FDF704790DF7047A8DF7047AADF7047C0
:10A7D000ADDF7047AEDF7047B0DF7047B1DF704765
:10A7E000B5DF704762DF704766DF704713DF704781
:10A7F0007FB50023CDF80A30ADF80E300A4BADF826
:10A8000006109B89ADF8083001238DF80A300DF150
:10A810000603CDE90430054B02A91888FFF7DAFFDB
:10A8200007B05DF804FB00BFFE70002096590020C1
:10A8300001460148FEF7EDB8CCDE070070B51822DE
:10A840008CB000210DEB020002F05AFF2823089380
:10A8500016231F4CADF806300023CDF80E30CDF88E
:10A860001230ADF816300223092606222370237118
:10A8700059230125A27063710322FE230DF1060105
:10A88000A0198DF818508DF82D500294ADF80C6079
:10A890006570E270A371FFF78DFFB8B9BDF806309F
:10A8A00026725A19E271BDF80C200A4C134402A911
:10A8B00006AA2046ADF80C30FFF76EFF30B92078BD
:10A8C000FFF76EFF29462078FFF768FF0CB070BDD8
:10A8D00012710020945900202DE9F04103881F2BAC
:10A8E0008AB0044600F0C3802AD8112B57D007D86D
:10A8F000012B00F0CD80102B43D00AB0BDE8F081D1
:10A90000142B00F043811A2B34D0132BF5D10023E4
:10A91000A24CADF812300223ADF8103004AA02ABFD
:10A9200042F6052120880593FFF752FF08B101F098
:10A93000DCFD00231A4685212088FFF73DFF86E0D5
:10A94000512B00F0AB800ED8232B00F08880502BC9
:10A9500039D0212BD1D1002304A98088ADF8103043
:10A96000FFF72EFF73E0552B59D0562B00F0868051
:10A97000522BC2D100231A461946A088FFF72EFF9A
:10A9800065E0864B82881A80854A12681C460AB1A7
:10A990000120904783492088FFF704FFADE77F4BF4
:10A9A0004FF6FF721A80804B1B685A0704D4FFF7DA
:10A9B00045FF08B101F099FD794B1B68002B9CD035
:10A9C0000220984799E7794EC288B3889A4294D179
:10A9D0007748FDF7F8FF054600288ED0228A04F15B
:10A9E000120102F0F3FD1822002104A802F088FEF3
:10A9F00008238DF810306F4B06936F4B0596CDE909
:10AA0000073504A8238AADF8243000F07BFC002829
:10AA10003FF473AF29466648FDF7FBFF6DE7C18839
:10AA2000F6291AD8CB1E9B070DD0CB1F9BB2013B3A
:10AA30005A4202F0030203F0030301F1FF3158BF51
:10AA40005342C91A89B2554B1888FFF7C9FE00282E
:10AA50003FF453AF01F049FD4FE7F721F3E7002240
:10AA600004A98088CDE90422FFF7ACFEEFE74B4B49
:10AA700000F108011888FFF795FEE8E78379002BBD
:10AA80007FF43BAF454B13211888FFF78DFEDEE7BF
:10AA9000424B00211888FFF7A7FED8E78379002BE7
:10AAA0003FF42BAF022B7FF428AF404900898A89FD
:10AAB00090420E467FF421AFA27B012A7FF41DAFA6
:10AAC00000220120CDE904228DF81600208AADF87D
:10AAD0001800324D608AADF81A0004F11400079096
:10AAE000ADF80A2001AF02AA098A28888DF8103033
:10AAF000ADF808300397FFF76BFEA84660B93846FB
:10AB0000FEF746FD40B940F2FD1304A92888ADF8D0
:10AB10001430FFF761FEF0E6002304A9B8F8000046
:10AB2000ADF81430FFF758FE014600287FF4E5AE7B
:10AB3000182204A802F0E4FD237D1E4A8DF810308F
:10AB4000022B0596069218D0062B10D0012B10D19F
:10AB50001A4B1A881A4B1A80637DD4F81620089372
:10AB6000012B099205D1174800F07EFD01E0637DBD
:10AB7000089304A800F0C6FBBFE6A27D637D43EA0C
:10AB800002230E4A13800E4A1380F2E700231A466E
:10AB900019468088FFF712FE59E700BF965900203A
:10ABA0003871002076DD070034710020FE7000202F
:10ABB000CCDE070035AC070031A807003C7100204F
:10ABC0003E710020B8DE070038B5154A1368044608
:10ABD00013F0010022D013498C421ED0124908887C
:10ABE0004FF6FF71884213D043F004031321136022
:10ABF000FFF7DAFD90B90D4DC82445F001054FF47B
:10AC00007A40A847013CFAD1BDE8384001F00CBBBE
:10AC1000074B1878FFF7C4FDF6E7002038BD00BFEA
:10AC200034710020B8DE07009659002070DD07005F
:10AC30009459002010B5044686B01122002101A8C5
:10AC400002F05EFD2378082B0BD1374A3749138871
:10AC50000988013B9BB21380D9B1D3B9032311807A
:10AC60002370627823788DF805306021012A8DF8F1
:10AC700004108DF806200ED00B2A12D100F092F9A4
:10AC80008DF80700002000F087F9042101A8FFF7E4
:10AC9000AFFD06B010BD062B05D0082B29D0032B25
:10ACA00027D00321F2E7E1688DF80710D4E90123EA
:10ACB000080A8DF80800080C090E8DF80A10110A10
:10ACC0008DF80B208DF80C10110C120E8DF80E2043
:10ACD0001A0A8DF80F308DF810201A0C1B0E8DF803
:10ACE0000D108DF809008DF811208DF812300F210C
:10ACF000CCE7D4E90123110A8DF807208DF808105C
:10AD0000110C120E8DF80A201A0A8DF80B308DF8EE
:10AD10000C201A0C1B0E8DF809108DF80D208DF8E3
:10AD20000E300B21B2E700BF3E7100203C710020C5
:10AD30002DE9F043444B95B005464FF6FF721A805B
:10AD400001204FF659632A4602A98DF80A00ADF892
:10AD50000830FFF739FD0446002871D13B4B04AAA7
:10AD600003F11007164618685968144603C40833DF
:10AD7000BB422246F7D1A91C3046FFF733FD0446FB
:10AD800000285DD101461C220DA802F0B9FC9DF8F7
:10AD90003430ADF8044043F004038DF8343002231E
:10ADA000ADF80C30AB788DF80E3004F0F80343F0BA
:10ADB00003038DF80630F423CDE90A44ADF82C30B6
:10ADC0002B4601AE4FF0110903AF33F8040B0C947E
:10ADD00008AA0DA98DF80590CDE90876FFF7F6FCD5
:10ADE000A046044660BB01461C220DA802F088FC68
:10ADF0009DF83430ADF8044023F0180343F01803F5
:10AE00008DF834300123ADF80C30AB788DF80E306E
:10AE10001723CDE90A44ADF82C302B4608F0E8089A
:10AE200048F0130833F80C0B0C9408AA0DA98DF800
:10AE300005908DF80680CDE90876FFF7C7FC04463B
:10AE4000204615B0BDE8F0839659002058DD070074
:10AE500030B5334C236813F0010585B05DD1314B1B
:10AE600018603148FDF798FD029500F0B6F800280B
:10AE70004CD12E48FFF7BAFC002847D101F096F9D3
:10AE8000002843D102A801F05FFA00283ED102A9B0
:10AE9000012001F063FA002838D102A801F0C6FAB7
:10AEA000002833D100F0A0FB30B1214800F090FB26
:10AEB000236843F002032360112302A88DF80430B5
:10AEC000FFF768FC10BB9DF8093002A801338DF82C
:10AED0000930FFF75DFCC8B923689B0718D51449F2
:10AEE0008869043182B201A8FFF762FC70B9114889
:10AEF000FFF75CFC50B91048FFF71AFF30B9FFF7B5
:10AF00009DFC18B9236843F00103236005B030BDF0
:10AF10000A4802F055FC0949E4E70020F6E700BFC3
:10AF20003471002038710020CCDE0700008007005B
:10AF30009460002076DD0700FE70002068DD0700C9
:10AF400043690BB1C0681847704700000449054BBE
:10AF50000022904208BF19460348FDF774BD00BFA8
:10AF60002CDA070000DA07000C5A002007B500931E
:10AF700013460A4601460348FDF769FD03B05DF834
:10AF800004FB00BF0C5A002013460A460146014844
:10AF9000FDF764BD0C5A0020014B18700B20704760
:10AFA00040710020024B002218781A70704700BFD1
:10AFB0004071002018DF704730B585B0054610227B
:10AFC0000C466846002102F09BFBA40868460195E8
:10AFD0000294FFF7EFFF05B030BD1FB50023CDE9A8
:10AFE00001330393684602230093FFF7E3FF05B0A4
:10AFF0005DF804FB4FF000534FF480521A600020BC
:10B0000070470000014B06201B6818474C71002058
:10B010000A2803D90B38C0B2FFF7BEBF7047000043
:10B0200010B5044686B00020FDF720FD014630B182
:10B03000164A18212046FDF7FBFA06B010BD18226B
:10B04000684602F05DFB04238DF80030104A114B76
:10B05000116D1B68994211D10F4B186800F06AFFFF
:10B060008DF80100FFF7D4FFD4E901138DF801003A
:10B0700068469847094800F05BFADEE701238DF83F
:10B0800001306846D4E901139847D6E721B007009C
:10B09000FC7C0020447100204871002005B00700AE
:10B0A000F0B5044687B0162200210DF1020002F02F
:10B0B00027FB23788DF8003001220C2B8DF801201E
:10B0C00000F214819A4012F4AD7F15D1510706D4D5
:10B0D000D30440F10B81864B07201B689847D4E9C5
:10B0E0000113684698479DF80130012B00F0F3806A
:10B0F0007F4B05201B68EDE0062B7E4A01D0012B1B
:10B1000001D1216911701178012904D0022954D08C
:10B110000023137099E0013B072BE0D801A252F8FD
:10B1200023F000BF45B10700DFB00700AFB1070053
:10B1300083B10700DFB00700A9B10700DFB0070047
:10B140005DB107006A4B03201B689847606900F0F7
:10B15000D5FCFFF75DFF8DF80100C0E7A18A2069EB
:10B1600000F0E4FCFFF754FF634B8DF80100DA6B4D
:10B170001B6C0293E3680192002BB0D020699847C2
:10B18000ADE75E495E4800F01FFDFFF741FF012873
:10B190008DF80100A3D1002000F0CAF900289ED04C
:10B1A0000A238DF801309AE74FF400730393524B52
:10B1B000DA6B1B6C0192029391E7013B072B8ED84F
:10B1C00001A252F823F000BFE9B10700DFB0070089
:10B1D000A7B20700B1B20700DFB00700DBB207007B
:10B1E000DFB007004FB2070000F0C0FC08B9082329
:10B1F000D7E762690AB90323D3E7C2F30B0333B17C
:10B200003D4B3E495B6D096813448B42F3D1B2F567
:10B21000805F01D90423C4E7374B3849586D09686A
:10B2200015188D42E3D85A64DA6C9A64186518636D
:10B23000334B61691B6801F6FF710022090B18444A
:10B24000FFF7A2FE00283FF44AAF0523A9E700F06C
:10B250008DFC0028CBD0284DA18AD5E914329B1A49
:10B260006A6C0B449342C6D8254B2E6B1B68206931
:10B2700005F148021E44FDF7ADFAE368A28A216990
:10B2800007463046FFF772FE08B1E36876E7A28A08
:10B290002B6B029713442B63A38A2A6DAF6413446C
:10B2A0002B6501931BE7144B9A6C02921B6DF8E718
:10B2B000114BD3E91402596C821A8A4297D19A6CC5
:10B2C0005865002120465964DA64FFF7A9FE084B4F
:10B2D0001B680420984707B0F0BD074B9A6C1B6DA4
:10B2E00001934FF4805302920393F8E6022358E748
:10B2F0004C71002098590020FC7C002044710020F3
:10B300004871002083681BB1024A1821FDF790B9EB
:10B3100007207047A1B0070038B50546C0B101202D
:10B32000FFF714FE044648B900F0DAFB00F01EFCFB
:10B3300030B9084B00201D60FFF72EFE204638BDB7
:10B340000549064800F040FC0128F2D00324F5E747
:10B350000724F3E74C71002044710020487100205D
:10B360002DE9F04115464FF46072064688461F46A7
:10B3700002F0FCF828B915B90020BDE8F081A84713
:10B38000FAE7002201213046FFF7FEFD70B94FF4C5
:10B3900060724146384602F019F92B464FF460724C
:10B3A00039463046FFF7E2FD0028E5D00320E4E708
:10B3B0002DE9F0413D4C236801335CD00022582137
:10B3C000201DFDF707FAD4F80080A8EB0002D2F1A7
:10B3D000000848EB0208364D364E2F683B680133B3
:10B3E0005ED000225821381DFDF7F4F93B688342F6
:10B3F00044D17C68012C0AD00022C32107F51870C3
:10B40000FDF7E8F9D7F85C42231A5C425C41B8F1D9
:10B41000000F35D04FF460722449264802F0D6F868
:10B4200064B1296824485422043102F0CFF8296815
:10B4300022484FF432725C3102F0C8F87468012C73
:10B440002CD11F49402201F5E47002F0BFF81D49DC
:10B450001C2201F5E47002F0B9F81B4986F8A142FC
:10B460000023042201F2862086F8603286F8E23258
:10B4700002F0ACF810E04FF00008ACE70024C6E79B
:10B4800024B14FF4607229680A48D5E74FF460721E
:10B490000021084802F034F902237360BDE8F0810E
:10B4A000B8F1000FF2D00024B4E700BF00F00700AD
:10B4B0009C590020FC7C0020007D0020587D00204D
:10B4C000587E0020987E0020187D002070B50D4C1D
:10B4D0000646002258212046FDF77CF9002244F858
:10B4E000040CC32104F51770FDF774F9251FC4F887
:10B4F000580232462946044B0448BDE87040FFF725
:10B500002FBF00BF007D00205071002000F0070019
:10B5100002460248024B0068FFF722BF9C590020F8
:10B52000D07400200149FFF7F3BF00BF00F007000F
:10B5300038B505460020FFF7C9FF044618B903498E
:10B540002846FFF7E5FF204638BD00BFFC7C002001
:10B5500010B5FFF7FBFC044628B9FFF729FF20468A
:10B56000FFF7E6FF00B1032010BD000010B5084C46
:10B570004FF40072FF21204602F0C2F82022002181
:10B58000A4F1240002F0BCF8002344F82C3C10BDC8
:10B59000587D002029DF704738B50C4D0446D5F89A
:10B5A000643378B101330FD1002218210430FDF744
:10B5B00011F92060214605F559700722BDE8384091
:10B5C000FFF7E8BF0E2038BD0820FCE700F00700B9
:10B5D00008B528B11C22034901F0F8FF002008BD7E
:10B5E0000E20FCE764F3070010B5064C002218217A
:10B5F0002046FDF7EFF854F8043C1B1A5842584116
:10B6000010BD00BF68F3070010B50A4CD4F824330E
:10B61000D4F864231340013309D04FF4FE20FDF722
:10B6200055FEC92221464FF4FE20FDF77DFE002085
:10B6300010BD00BFFC7C0020F8B5094E094CA41BCE
:10B640000746E4080025A54201D10020F8BD56F8C0
:10B650003530384698470028F8D10135F3E700BF68
:10B66000B8DE0700C0DE0700F8B5094E094CA41B80
:10B670000746E40800250436A54201D10020F8BDA4
:10B6800056F83530384698470028F8D10135F3E7A9
:10B69000B8DE0700C0DE070008B50C22002102F06A
:10B6A0002FF8024B00221A6308BD00BFFC7C00206B
:10B6B00043F204031A68084B9A4201BF43F208039D
:10B6C000186800F6FF7020F47F600CBF20F00F00B8
:10B6D0004FF48050704700BFDBE5B15108B5FFF76C
:10B6E000E7FF054B9B69184400F6FF7020F47F606C
:10B6F00020F00F0008BD00BFFC7C00204FF48050FC
:10B70000704700002DE9F84F1F46224BDFF890A04C
:10B710001E6A044615464FF0000843F204095FFA1A
:10B7200088FBBBF1010F14D0BBF1020F1DD0FFF756
:10B73000D5FF65B1721E53425341174A101AA042F9
:10B7400000D3F1B1ABB1A0421BD2042020E02B46C4
:10B75000F3E7FFF7ADFF37B9D9F80030B3EB0A03D1
:10B7600018BF0123E9E75B46E7E701234FF4805068
:10B77000E3E708F10108B8F1030FD0D1A042E4D308
:10B7800002E0BBF1000F02D00448FFF785FF002064
:10B79000BDE8F88FFC7C002000500700147D0020DD
:10B7A000DBE5B15190F8552012F0FB0F07D190F86E
:10B7B000643023B1836ECBB10B600120704712F06F
:10B7C000010303D090F8563003B1836D9207F2D590
:10B7D00090F85C20002AEED0054A006EC2F5FC22EB
:10B7E000904201D80344E6E7042070470F207047D9
:10B7F0000080070030B55B68DA680D4B9A4208D1CB
:10B800000C490A6812B90C4A14681CB10B4B00228F
:10B810001A7030BDD0E901341C4413F9015B002DCE
:10B82000A4EB0300F9DB0B601060044B0122EFE78F
:10B8300034DC070078780020747800207C780020C1
:10B8400010B543F20403194A1C68944201462BD0F8
:10B8500042F20403C358981A4342434194421846A3
:10B8600021D142F20403CB58A3421CD14FF44053E0
:10B8700001F500521B781278142B81BF43F2140398
:10B880000B481B68B3FBF0F398BF0023142A89BF51
:10B8900042F2140200208858054A88BFB0FBF2F03B
:10B8A000181A18BF012010BD0023D7E7DBE5B151FE
:10B8B00040420F002DE9FF472F49304D8A6B304C35
:10B8C000304FDFF8D490DFF8D4A06E465C313046BC
:10B8D000FEF7F2FB96E80F0085E80F0000212A4BE7
:10B8E00039704FF447722046C9F80010CAF80010AA
:10B8F000EB6001F005FF224624492846FEF77BFE57
:10B9000020B90027384604B0BDE8F0873F78002F03
:10B91000F7D094F86C3194F800801BB3B8F1000FA5
:10B92000EFD194F87231002BEBD0DAF80020D9F87F
:10B9300000103046FEF7C0FB96E80F0085E80F00C8
:10B940004FF4B272414604F5BA7001F0D9FE04F525
:10B95000BA720F492846FEF74EFE0028D1D004F5F2
:10B96000BA7406E0B8F1000FCBD0A379002BC8D091
:10B970000834084B1C60C5E7FC7C00209C7B002041
:10B98000807800207C780020F5B70700E8DC07000D
:10B9900034DC0700587C0020787800207478002080
:10B9A00000B591B0FDF7AAFD684620220749FDF7D2
:10B9B000D8FD6A46402306490648FDF7F7FC064BCA
:10B9C00001221A7011B05DF804FB00BFC0DD070052
:10B9D000AC7B00204CDB070050780020F0B5A3B012
:10B9E00006460F4615461C4678222023002104A84F
:10B9F000029301F085FE00230393194B1B780BB9CA
:10BA0000FFF7CEFF2FB336BB02AB164E0193009665
:10BA1000289B1549224604A8FDF756FDE8B9402D9C
:10BA20001BD1124C2A463946204601F0CFFD202179
:10BA30002046FDF7A2FDCDE90045029B0C493246A8
:10BA400003A8FDF7CFFC00280CBF0120052023B080
:10BA5000F0BD1320FBE71620F9E70A20F7E700BF47
:10BA600050780020F47B00208CDB0700147C002041
:10BA7000AC7B0020F0B5ABB004460E4617461D4621
:10BA80007822202300210CA8039301F039FE114BEA
:10BA90001B780BB9FFF784FF2DB12146202204A8A3
:10BAA000FDF754FD04AC03AB0B4D019300953B46F1
:10BAB00032460A490CA8FDF707FD48B92022214665
:10BAC000284601F053FDB0FA80F040092BB0F0BDDC
:10BAD0000020FBE750780020517800208CDB070025
:10BAE00008B5044B986B08B1FFF7E4FE024B1870E1
:10BAF00008BD00BFFC7C0020547C002010B504462B
:10BB000058B1B0F5007F0AD8064B00221A70FFF733
:10BB10002DFD054B01209C6310BD0320FCE7042094
:10BB2000FAE700BF547C0020FC7C002070B50E4C6E
:10BB30000646E06BA36B42189A420D4611D85C3062
:10BB40000A462044314601F041FDE36B04F1400216
:10BB50002B4429463046E363FCF73CFE2064012079
:10BB600070BD0320FCE700BFFC7C0020014B18786F
:10BB7000704700BF547C002013B5104C94F86C2122
:10BB8000B2B194F8D802B4F8DA2204F5377104F5AA
:10BB9000B8740B4B1B6800930A4B1B68FFF71EFF22
:10BBA000012809D1201D02B0BDE8104000F0C6B93F
:10BBB000114610460434ECE702B010BD8078002036
:10BBC00074780020787800202DE9F0411F4BD3E9EC
:10BBD0000E329A4207460D4633D1DFF8788098F846
:10BBE00000604EB1FFF77AFD194B3860294618689E
:10BBF000BDE8F041FFF7D6BDFFF75CFE18B3FFF7D5
:10BC0000BBFF01283E6004462E6017D1104B294629
:10BC10001868FFF7C7FD012804460FD103463246D6
:10BC200031462868FFF76EFD38B9FFF757FD88F8F1
:10BC3000004038602046BDE8F0810424FFF796FC00
:10BC4000F8E70824F6E70524F4E700BFFC7C0020B1
:10BC5000587C0020547C002001237230FFF70ABF7B
:10BC600037B503780D461146032B03D8DFE803F000
:10BC700022051019002003B030BDD0F80140002289
:10BC80002846FCF7A7FD844214BF00200120F2E7FC
:10BC90000A4600232946013003B0BDE83040FFF7D3
:10BCA000E9BE00912B46411C40220020FFF796FE82
:10BCB0000128E9E70120DEE72DE9F041A2B00446C2
:10BCC0000D469046002178221F4604A820239DF8A7
:10BCD000A460039301F014FD41220021204601F0ED
:10BCE0000FFDB5F89430434582BF442303FB08534E
:10BCF00093F896602670032E1ED8DFE806F009023E
:10BD0000111F002228993846FCF764FDC4F8010091
:10BD1000289A39462046FFF7A3FF22B0BDE8F081FC
:10BD200003AB0193631C00933A46289B094904A87E
:10BD3000FDF7CAFB0028EBD00020EEE7442101FB11
:10BD400008F16B189A31B3F898202944601C01F06F
:10BD50003DFCDDE78CDB07002DE9F0476F4B1D68EC
:10BD6000A4B004460F4690460A4601462846FFF70F
:10BD700073FF002800F0D08095F8556026BB4FF087
:10BD80000109CDE9007923463246294613A8FFF779
:10BD900093FF002800F08380B8F1000F6ED041229D
:10BDA00013A95F4801F012FC5E4BC3F82C901E6291
:10BDB0006A689A60002239462046FCF70BFD594B11
:10BDC0000125C3E90970A2E04122002102A801F087
:10BDD00097FC06F001094122002113A806F0020693
:10BDE00001F08EFCB9F1000F4CD042F20403E1588F
:10BDF00003F1A34303F5471303F2D75399424ED1FE
:10BE0000D5F858A00AF5FF530AF6FF72C2F30B02E9
:10BE10001F339B1A42F20802A2589A423FD343F2C0
:10BE200004031B688B4213D14FF440531B78102B33
:10BE30008ABF43F2100300221A6804F500531B78EE
:10BE4000102B8ABF42F210030023E3589A4226D1F6
:10BE50002046FFF7F5FC00B10EB30123CDE900A3A6
:10BE600000222346294602A8FFF726FFB8B1AA6D93
:10BE7000A318BA1A4EB9B8F1000F1AD1294B0125EF
:10BE80005D6112E03A462346F4E70021CDE9002146
:10BE900013A84A462946FFF70FFF0028EBD10525D6
:10BEA000B8F1000F30D1FFF761FB284624B0BDE8A0
:10BEB000F087DFF87080B9F1000F21D02046FFF73E
:10BEC000BFFC18B108F11800FFF7E6FB412202A9F8
:10BED000154801F07BFB002E14BFAC23A523C8F846
:10BEE0002C30AB6DC8F83430002E3FF463AF4122E4
:10BEF00013A90E4801F06AFB6B68C8F80C3059E7CB
:10BF0000AA23C8F82C30EFE70948FFF7C5FBFFF775
:10BF10002DFB044B9C64C8E71725C1E7587C002023
:10BF20009D7F0020FC7C00205C7F0020DE7F0020C5
:10BF3000207D00200122FFF70FBF0000F0B590F830
:10BF40005430002B53D090F85530032B4FD890F835
:10BF50006E20032A49D1027A002A48D0C268342AC6
:10BF600047D143F20401028A0C6823498C422CD148
:10BF700052B14169F1B1D2B2002100F1140543F28E
:10BF80000C06CCB2A24201D8122311E055F8217060
:10BF90003488A74201F10101F3D102780AB3012BE1
:10BFA0004268164B17D89B689A4234BF102301236E
:10BFB0001846F0BD13B9012AE6D8EEE713F1FF32B7
:10BFC00018BF0122002AE8D1DEE712B14269002A37
:10BFD000DAD10278F6E7DB689A428CBF012310239E
:10BFE000E6E7012B18BF0F23E2E71423E0E70F2356
:10BFF000DEE71123DCE700BFDBE5B151FC7C00206C
:10C0000038B1054B0360054B4360012303720020E8
:10C0100070470E20704700BF47C0070021C00700CF
:10C0200069B10B78022B0CD1022804D003280CBF75
:10C0300011200820704703230B70002070470E204A
:10C0400070470820704710B50C4681B10B78042B5F
:10C0500004D8DFE803F00E05030E0E00112010BD1A
:10C06000FFF79AFA0028FAD102232370F7E70E208F
:10C07000F5E70820F3E7000070B5144B144A0C21D3
:10C08000D21AB2FBF1F2816911F8025C044635B9AB
:10C0900000690021914205D1012323600EE04FF099
:10C0A000FF30F6E71E68AE420CD1461C07D19D68F2
:10C0B000D4E90001D4E90223A847206070BD5E687E
:10C0C0008642F4D001310C33E4E700BFC0DE070044
:10C0D000CCDE07001EF0040F0CBFEFF30880EFF377
:10C0E0000980FFF7C9BF00BF10DF704711DF70473D
:10C0F00013B5044609496846FCF7DEFE019808B905
:10C1000002B010BDD0E900312046984718B168460A
:10C11000FCF7DBFEF2E71120F2E700BF84DD070049
:10C1200013B5044607496846FCF7C6FE019B0BB9E8
:10C1300002B010BD2046D3E9002190476846FCF7C5
:10C14000C4FEF3E79CDD07000B4991F816335A094A
:10C15000EC231341DB0706D5084B9A683AB94FF434
:10C1600080030B60704742F2020000F0BEB91A680B
:10C1700042F480021A60704700E100E0F07C002089
:10C18000084B9A6822B11A6822F480021A6070473C
:10C19000054B4FF48002C3F88020BFF34F8FBFF3ED
:10C1A0006F8F7047F07C002000E100E0F7B5194F79
:10C1B0003C7864BB184E012520463570FFF798FF88
:10C1C000112821D02046FFF7ABFF144B8DF8034018
:10C1D000186801900DF10300FCF7C2FA104901A89C
:10C1E000FFF782FF0446B0FA80F0400938709DF8EE
:10C1F0000300FCF7D9FA3CB90A4B34701C70FFF706
:10C20000A3FF2846FFF78CFF204603B0F0BD0824AB
:10C21000FAE700BF5D7C00205C7C00207EDD07002B
:10C22000E5C407005E7C0020F7B5154F3B781BB3D3
:10C23000144E01203070FFF75BFF11284FF000050E
:10C240001CD00220FFF76CFF0DF107008DF807509E
:10C25000FCF786FAFFF74AFF04469DF807003D7099
:10C26000FCF7A2FA2CB93470FFF78AFF0320FFF71E
:10C2700057FF204603B0F0BD0824FAE72C46F8E744
:10C280005D7C00205C7C0020054B1B7833B1054BA6
:10C290001B780BB1FFF7C8BFFFF788BF08207047B6
:10C2A0005C7C00205D7C0020014B1878704700BF4B
:10C2B0005D7C002007B508496846FCF7FDFD019B41
:10C2C00013B903B05DF804FBD3E90020904768463A
:10C2D000FCF7FBFDF3E700BF90DD0700FFF7EABFC7
:10C2E00060DF704769DF704761DF704730B5114D1F
:10C2F000ADF5017D4FF4FA740DF1020103A8ADF81C
:10C300000240FFF7F1FF70B9294601A8FCF7D4FD00
:10C31000029B002BF0D003A8D3E90021904701A88D
:10C32000FCF7D3FDF4E7052801D000F0DEF80DF5A9
:10C33000017D30BDA8DD0700024B1B780BB1FFF774
:10C34000D5BF70475F7C002018B1034B036000200D
:10C3500070470E20704700BF68590020F0B50746AF
:10C3600085B00D4600295DD02F4B0B600C220021BB
:10C3700001A801F0C5F9012606232A68ADF80830A6
:10C3800001A920208DF804708DF80660FFF7AAFF40
:10C390000C22002101A801F0B3F900242A688DF8CD
:10C3A000056001A94020ADF80640FFF79BFF0C2275
:10C3B000214601A801F0A4F9F7232A68ADF8063058
:10C3C00001A923208DF80470FFF78CFF0C22214671
:10C3D00001A801F095F92A688DF8046001A930469A
:10C3E000FFF780FF0C22214601A801F089F94FF4E4
:10C3F000B0632A68019301A9A120FFF773FF0C2203
:10C40000214601A801F07CF99DF804302A6864F304
:10C41000000301A9A0208DF80430FFF763FF204638
:10C4200005B0F0BD0E20FBE76859002008B5FFF706
:10C4300057FF10B9014B01221A7008BD5F7C002024
:10C440004BDF70471FB50D4C01A8FFF7F9FF70B91E
:10C45000214602A8FCF730FD039B002BF4D0019885
:10C46000D3E90021904702A8FCF72FFDF4E7052847
:10C4700001D000F03AF804B010BD00BFB4DD0700F1
:10C48000BFF34F8F0549064BCA6802F4E0621343BD
:10C49000CB60BFF34F8F00BFFDE700BF00ED00E0B2
:10C4A0000400FA0508B507281BD8DFE800F00412DD
:10C4B0001A1A1A041A040120FCF7E1FE0020FCF706
:10C4C000B7FE0120FCF7B4FE0220BDE80840FCF7EF
:10C4D000BBBE0120FCF7B8FE0220BDE80840FCF717
:10C4E000A7BE08BD08B5FFF7CBFF08B5FFF7C8FF2B
:10C4F00008B5FDF7E9FB4FF480510020FDF785F901
:10C5000008B1FFF7BDFF0548C0F5FC21FDF77DF937
:10C510000028F6D10248FDF78FF8F2E70080070007
:10C52000A5C407008B1802448B4200D1704713F852
:10C53000010D02F8010DF7E7000000000000000007
:10C54000C3F10803DB0070B50133002403A500BF6D
:10C550005B1920C940CAAD1920C0184720C940CA7C
:10C56000754120C020C940CA754120C020C940CAB9
:10C57000754120C020C940CA754120C020C940CAA9
:10C58000754120C020C940CA754120C020C940CA99
:10C59000754120C06441204670BD00BF000000000E
:10C5A000C3F10803DB0070B50133002403A500BF0D
:10C5B0005B1920C940CAAD1B20C0184720C940CA1A
:10C5C000B54120C020C940CAB54120C020C940CAD9
:10C5D000B54120C020C940CAB54120C020C940CAC9
:10C5E000B54120C020C940CAB54120C020C940CAB9
:10C5F000B54120C06441B4FA84F0400970BD00BF69
:10C600002DE9F04F08B4F8CA04B451F8042BA3FB89
:10C61000028940F8048B4FF0000AE4FB629A4FF065
:10C62000000BE5FB62AB4FF0000CE6FB62BC4FF089
:10C63000000EE7FB62CE51F8042B4FF00008E3FB3D
:10C64000628940F8048BE4FB629AE5FB62ABE6FB8F
:10C6500062BCE7FB62CE51F8042B4FF00008E3FB0D
:10C66000628940F8048BE4FB629AE5FB62ABE6FB6F
:10C6700062BCE7FB62CE51F8042B4FF00008E3FBED
:10C68000628940F8048BE4FB629AE5FB62ABE6FB4F
:10C6900062BCE7FB62CE51F8042B4FF00008E3FBCD
:10C6A000628940F8048BE4FB629AE5FB62ABE6FB2F
:10C6B00062BCE7FB62CE40F8049B40F804AB40F854
:10C6C00004BB40F804CB40F804EB0CBC052B00F095
:10C6D0001E810C68A0F11400A1F11401A2F1140252
:10C6E00052F804EB4FF0000550F8046BE4FB6E5673
:10C6F00052F804EB50F8047BE4FB6E6752F804EB4D
:10C7000050F8048BE4FB6E7852F804EB50F8049B6D
:10C71000E4FB6E8952F804EB50F804ABE4FB6E9A2C
:10C72000A0F1140052F8044B51F804EB4FF0000C48
:10C73000E4FB6EC540F804CB51F804EBE4FB6E5605
:10C7400040F8045B51F804EBE4FB6E6740F8046BBF
:10C7500051F804EBE4FB6E7840F8047B51F804EBED
:10C76000E4FB6E8940F8048B51F804EBE4FB6E9A0D
:10C77000A0E80006062B00F0CA800C68A0F11800A3
:10C78000A1F11801A2F1180252F804EB4FF00005D4
:10C7900050F8046BE4FB6E5652F804EB50F8047B3F
:10C7A000E4FB6E6752F804EB50F8048BE4FB6E7800
:10C7B00052F804EB50F8049BE4FB6E8952F804EB4A
:10C7C00050F804ABE4FB6E9A52F804EB50F804BB4B
:10C7D000E4FB6EABA0F1180052F8044B51F804EBE7
:10C7E0004FF0000CE4FB6EC540F804CB51F804EBAD
:10C7F000E4FB6E5640F8045B51F804EBE4FB6E6713
:10C8000040F8046B51F804EBE4FB6E7840F8047BCD
:10C8100051F804EBE4FB6E8940F8048B51F804EB0B
:10C82000E4FB6E9A40F8049B51F804EBE4FB6EAB1A
:10C83000A0E8000C072B6AD008B40C68A0F11C001B
:10C84000A1F11C01A2F11C0252F804EB4FF000050B
:10C8500050F8046BE4FB6E5652F804EB50F8047B7E
:10C86000E4FB6E6752F804EB50F8048BE4FB6E783F
:10C8700052F804EB50F8049BE4FB6E8952F804EB89
:10C8800050F804ABE4FB6E9A52F804EB50F804BB8A
:10C89000E4FB6EAB52F804EB50F804CBE4FB6EBC47
:10C8A000A0F11C0052F8044B51F804EB4FF00003C8
:10C8B000E4FB6E3540F8043B51F804EBE4FB6E56A4
:10C8C00040F8045B51F804EBE4FB6E6740F8046B3E
:10C8D00051F804EBE4FB6E7840F8047B51F804EB6C
:10C8E000E4FB6E8940F8048B51F804EBE4FB6E9A8C
:10C8F00040F8049B51F804EBE4FB6EAB40F804AB4A
:10C9000051F804EBE4FB6EBCA0E8001808BCBDE8DD
:10C91000F08F002310B51C465AB2914200DC10BDC6
:10C9200040F823400133F7E710B500231A465CB204
:10C93000A14203DCB2FA82F0400910BD50F8234056
:10C9400001332243F3E74A11012350F8220001F09A
:10C950001F0103FA01F108407047013910B549B2CF
:10C96000041D0A06CBB204D4013954F82120002A50
:10C97000F7D001335BB273B103F18042013A50F852
:10C980002220002022B9013B00EB431318B210BD56
:10C9900052080130F6E71846F9E710B500235CB2FB
:10C9A000A24200DC10BD51F8234040F8234001337F
:10C9B000F5E710B5013A52B2130601D5002010BDBB
:10C9C00050F8224051F822309C4205D802F1FF3243
:10C9D000F2D24FF0FF30F2E70120F0E700EB8101E7
:10C9E0000023884200D3704751F8042D43EA5203D4
:10C9F0000B60D307F5E770B59DF910401E4623463E
:10CA00000546FFF79DFD30B9224629463046FFF71F
:10CA1000D0FF012807D02346324629462846BDE8E4
:10CA20007040FFF7BDBD70BD70B59DF910401E464A
:10CA300023460546FFF7B4FD38B123463246294662
:10CA40002846BDE87040FFF77BBD70BD2DE9F04F73
:10CA5000B5B004AC9DF9F8501F4681462B462046E0
:10CA6000FFF7CEFD24AB29463846CDE90234FFF767
:10CA700074FFC0EB851004B2002C2646B8BF04F149
:10CA80001F06634246F3471603F01F0304F01F0816
:10CA900014A858BFC3F100083146FFF73AFFB8F1B8
:10CAA000000F30B22DDD14AB002203EB8000C8F183
:10CAB000200C1346AB4219D32FB27B00019314AB69
:10CAC00003EB870705F1FF3834AB012603EB880839
:10CAD000002C54DA34AB03EB86062A4656F8C81C01
:10CAE0004846FFF75AFF35B0BDE8F08F57F823608E
:10CAF00006FA08F10A4340F8042B013326FA0CF237
:10CB0000D8E714AB2A46394603EB8000FFF745FF10
:10CB1000D2E70FFA82FE5AF8C83C53F82EB034AB75
:10CB200003EB8202013052F8803C0B44BBEB030361
:10CB300034BF012200229B4518BF11465CF8C82C67
:10CB400042F82E30019B42B29A42E2DB731A5E42F7
:10CB5000294614A85E41FFF741FF34AB03EB850380
:10CB6000294653F8802C58F8803C384643EAC27373
:10CB7000013C48F8803C24B2FFF730FFA8E734AB13
:10CB80000020C6F1010C014603EB860A03EB8C0C76
:10CB9000D8E730B51C4691B0054693F90030684699
:10CBA000FFF72EFDD4F8AC3069462846984711B0FF
:10CBB00030BD13460A46FFF7ECBF2DE9F04793F965
:10CBC000006092B0044689461046314615469846A4
:10CBD000FFF7AAFE002840F091804246494602A88D
:10CBE000FFF7E7FF434602AA21460AA8FFF7D1FF55
:10CBF00002A908464246FFF7DCFF43462A4649465B
:10CC00004846FFF7C6FF08F1040742462946284672
:10CC1000FFF7CFFF3B462A46214620460096FFF706
:10CC2000EAFE3B462A46294628460096FFF7E3FEE1
:10CC30003B462A46214628460096FFF7F5FE434626
:10CC40002A4621462046FFF7A4FF3B4622462146BE
:10CC500028460096FFF7CFFE3B4600962A4621461F
:10CC60002046FFF7C8FE2368DB074AD533463A461D
:10CC700021462046FFF764FC314682462046FFF7F6
:10CC8000ADFE06F18043013B54F8230040EACA7030
:10CC900044F82300424621462846FFF78AFF3B46D8
:10CCA0000AAA294628460096FFF7BEFE3B460AAA76
:10CCB000294628460096FFF7B7FE0AA908463B46D4
:10CCC0002A460096FFF7B0FE43460AAA21462046B0
:10CCD000FFF75FFF02AA3B46104621460096FFF78A
:10CCE000A3FE324629462046FFF757FE494628460E
:10CCF000FFF753FE02A94846FFF74FFE12B0BDE80A
:10CD0000F08731462046FFF769FEC3E72DE9F04181
:10CD100015468AB0044688461C22002103A800F06C
:10CD2000EFFC2E1D95F9007003232A46414620464C
:10CD30000293FFF73EFF334602AA214620460097A2
:10CD4000FFF772FE2B46424621462046FFF721FFA1
:10CD50000097334605F1840221462046FFF74BFE3B
:10CD60000AB0BDE8F0810000F0B5082289B00C4699
:10CD70000646FFF712FECB6A03930B6B04934B6BD3
:10CD800005938B6B0693CB6B0793002708236A46AA
:10CD900069466846CDE901770097FFF7D1FB082384
:10CDA00005466A4631463046FFF7CAFB236B0393BC
:10CDB000636B0493A36B0593E36B0544CDE90637DE
:10CDC0006A46082369466846FFF7BAFB082305440C
:10CDD0006A4631463046FFF7B3FB236A0093636A25
:10CDE0000193A36A0293A36B0693E36B0793054435
:10CDF00008236A4631463046CDE904770397FFF7AA
:10CE00009FFB636A0093A36AA26B0193E36A029398
:10CE10000492636BE26B0393CDE90523236A0793C6
:10CE2000054408236A4631463046FFF789FBE36A2A
:10CE30000093236B0193636B0293236A0693A36AA7
:10CE40000793054408236A4631463046CDE9047706
:10CE50000397FFF7A5FB236B0093636B0193A36B11
:10CE60000293E36B0393636A0693E36A07932D1AB5
:10CE700008236A4631463046CDE90477FFF790FB38
:10CE8000636B0093A36B0193E36B0293236A039399
:10CE9000636A0493A36ACDE90537236B07932D1AC0
:10CEA00008236A4631463046FFF77AFBA36B0093AE
:10CEB000E36BCDE90137636A0393A36A0493E36AE2
:10CEC000CDE90537636B07932D1A08236A4631466F
:10CED0003046FFF765FB2D1A0D4C0FD435B90822EB
:10CEE00031462046FFF765FD01280FD00823224672
:10CEF00031463046FFF754FB2D1AEFE70823224650
:10CF000031463046FFF71CFB2D18F7D409B0F0BDB1
:10CF100004DE0700F0B5154689B01C4607460E46EC
:10CF20001A4629466846FFF744FE23466A463946B4
:10CF30003846FFF72EFE23462A4669466846FFF725
:10CF400028FE23466A4631463046FFF722FE09B0E6
:10CF5000F0BD2DE9F0438BB01446129D15F9046B1A
:10CF600000961F46804689462B460246214602A867
:10CF7000FFF75AFD02A9129A0846FFF71AFE129B04
:10CF800002AA41464046FFF704FE129B02AA214630
:10CF90002046FFF7FEFD2B464A46394638460096A6
:10CFA000FFF742FD129A394602A8FFF702FE02A9D6
:10CFB0002B46424608460096FFF736FD02A92B464F
:10CFC000224608460096FFF72FFD2B464246214693
:10CFD00020460096FFF728FD129B22464946484608
:10CFE000FFF7D7FD2B4602AA414620460096FFF7E1
:10CFF0001BFD129B224639463846FFF7CAFD2B46D9
:10D000004A46394638460096FFF70EFD324602A9D9
:10D010002046FFF7C2FC0BB0BDE8F0832DE9F047D6
:10D020001F46B3F90230894613F11F0148BF03F1CF
:10D030003E014D11D91D48BF03F10E01CC109442A1
:10D040004FFA85F828BF144641460646FFF761FCB3
:10D0500022464946FFF766FAB7F90220E4009442F7
:10D060001FD9A41A06EB85010022C4F120058E42C7
:10D070000ED32437424631463846FFF79AFC012842
:10D080000FD043463A463046BDE8F047FFF788BA2E
:10D0900051F8040D20FA04F313430B6000FA05F273
:10D0A000E5E7BDE8F08770B5036813F001060546B3
:10D0B000144605D013460A460146FFF741FA0646D4
:10D0C00021462846FFF78AFC46B104F18042013A26
:10D0D00055F8223043F0004345F8223070BDF0B5DA
:10D0E0000F46A1B006461946384615461C46FFF7BE
:10D0F0001BFC20B13046FFF70CFC21B0F0BD2246EE
:10D1000039466846FFF749FC294608A8FFF745FC61
:10D1100010A82146FFF7FDFB012318A81093FFF785
:10D12000F8FB224608A96846FFF743FC28B92246C7
:10D1300010A93046FFF731FCDFE7009BDA0709D47E
:10D1400021466846FFF74AFC2246294610A8FFF709
:10D15000AAFFE6E7089BDB0707D4214608A8FFF7EC
:10D160003DFC2246294618A8F1E7002823461CDD8D
:10D1700008AA69466846FFF713FA21466846FFF792
:10D180002DFC224618A910A8FFF713FC002805DA89
:10D1900010A923462A460846FFF7D2F910A92346CC
:10D1A00018AA0846FFF7FCF9CEE708A96A46084620
:10D1B000FFF7F6F9214608A8FFF710FC224610A950
:10D1C00018A8FFF7F6FB002805DA18A923462A4617
:10D1D0000846FFF7B5F918A9234610AA0846FFF735
:10D1E000DFF9BEE70048704700DE07002DE9F04F89
:10D1F000EDB01F46769E0490B6F9023096F90040D5
:10D2000013F11F0948BF03F13E0949F3471909F11A
:10D21000FF3824AB002543F828506CAB03EB8803A0
:10D220004CA88A469346394696F9012043F8805C1B
:10D2300043F8605CFFF776F996F9012054A8B91815
:10D24000FFF770F921464CA8FFF76EFB0746002850
:10D2500040F02D8154A8FFF767FB0290002840F0B2
:10D26000288106F124034A464CA918460393FFF788
:10D27000A0FB012840F01F814A4654A90398FFF7FC
:10D2800098FB0128069040F016811CAD0CAF4B4670
:10D29000039A54A92846FFF722FF029B47F828303B
:10D2A0005A46514638463346FFF7B8FE39463846A7
:10D2B000039BCDF800902A46FFF7C8FB0DF5B87820
:10D2C000039BCDF800902A464CA914A8FFF7BEFB9B
:10D2D000224640460499FFF760FBA30008EB030ACF
:10D2E0000793049BA100591806F1440B5046FFF721
:10D2F00054FB594634A8FFF750FBA3000BEB030186
:10D300003CA8FFF74AFB331D414634AA2846009447
:10D310000593FFF789FB534642463CA934A8009683
:10D32000FFF717FE2346321D29462846FFF7D7FE92
:10D330002A46514640463346FFF7ECFD029BCDE9B5
:10D34000083B049B49463846CDE90A38FFF705FB00
:10D350004946804614A8FFF700FB8045B8BF8046C9
:10D360001FFA88F808F1FF3B0FFA8BFB5946384645
:10D37000FFF7E9FA5946071C14A818BF0127FFF761
:10D38000E2FA002814BF022300231F430DF1200AF4
:10D3900022465AF8277024A83946FFF7FEFA0DF105
:10D3A000B00BA300F9185846FFF7F7FA21462846B4
:10D3B000FFF7AFFAA8F10208069B2B600FFA88F876
:10D3C0000DF1900AB8F1000F23DA2346059A294699
:10D3D0002846FFF784FE33462A4659465046FFF753
:10D3E00099FD4A4651460398FFF7E3FA012804D015
:10D3F0004B46039A5046FFF7D3F8013C64B24CAA5F
:10D4000023064AD5029BB3FA83F040096DB0BDE80C
:10D41000F08F33462A46D6F8A47059465046B8478E
:10D4200041460CA8FFF78FFA4146071C14A818BF05
:10D430000127FFF788FA002814BF022300231F43A7
:10D4400008AB53F827701FB32246394634A8FFF7BC
:10D45000A4FA079B3CA8F918FFF79FFA33462A461F
:10D460003CA934A8FFF756FD059B009434AA514609
:10D4700044A8FFF7D9FA5B4652463CA934A8009667
:10D48000FFF767FD334644AA29462846FFF781FB8C
:10D4900008F1FF380FFA88F894E752F824105AF888
:10D4A00024304B40029919430291013CA8E72846D9
:10D4B000ACE73846AAE70298A8E700000023014637
:10D4C0001A46184600F0EAB908B5074B044613B1EE
:10D4D000002100F033FA054B1868836A03B19847BE
:10D4E000204600F079FA00BF3DD90700B0DE070002
:10D4F00038B50A4C0A4D641BA4100AD004F18043CD
:10D50000013B05EB8305013C55F804399847002C95
:10D51000F9D1BDE8384000F067BA00BF0C5A0020CE
:10D52000085A002070B50D4E0D4D761BB61006D072
:10D530000024013455F8043B9847A642F9D1094E1E
:10D54000094D761B00F04AFAB61006D000240134CB
:10D5500055F8043B9847A642F9D170BD045A002003
:10D56000045A0020085A0020045A0020032A70B4EC
:10D5700012D940EA0105AD0704460B4620D11946F1
:10D58000204653F8045B54F8046BAE4218D1043AB9
:10D59000032A20461946F2D8541E72B103780A783D
:10D5A0009A4208BF241806D00CE010F8013F11F889
:10D5B000012F934206D1A042F7D1002070BC7047E2
:10D5C000541EEBE7981A70BC704700BF844641EACE
:10D5D000000313F003036DD1403A41D351F8043BEB
:10D5E00040F8043B51F8043B40F8043B51F8043B3D
:10D5F00040F8043B51F8043B40F8043B51F8043B2D
:10D6000040F8043B51F8043B40F8043B51F8043B1C
:10D6100040F8043B51F8043B40F8043B51F8043B0C
:10D6200040F8043B51F8043B40F8043B51F8043BFC
:10D6300040F8043B51F8043B40F8043B51F8043BEC
:10D6400040F8043B51F8043B40F8043B51F8043BDC
:10D6500040F8043B51F8043B40F8043B403ABDD24B
:10D66000303211D351F8043B40F8043B51F8043BED
:10D6700040F8043B51F8043B40F8043B51F8043BAC
:10D6800040F8043B103AEDD20C3205D351F8043B7C
:10D6900040F8043B043AF9D2043208D0D2071CBF48
:10D6A00011F8013B00F8013B01D30B880380604671
:10D6B000704700BF082A13D38B078DD010F00303E7
:10D6C0008AD0C3F10403D21ADB071CBF11F8013B57
:10D6D00000F8013B80D331F8023B20F8023B7BE7A6
:10D6E000043AD9D3013A11F8013B00F8013BF9D2D1
:10D6F0000B7803704B7843708B788370604670476B
:10D70000F0B4860746D0541E002A3CD0CAB2034665
:10D7100002E014F1FF3436D303F8012B9D07F8D152
:10D72000032C29D9CDB245EA05250F2C45EA05453C
:10D7300033D9A4F11006360903F1200707EB0617C9
:10D7400003F1100242E9045542E902551032BA428F
:10D75000F8D1721C14F00C0F03EB021204F00F0648
:10D7600013D0331F23F003030433134442F8045B44
:10D770009342FBD106F003042CB1C9B21C4403F858
:10D78000011B9C42FBD1F0BC704734461346002C71
:10D79000F3D1F8E714460346C2E71A462646E0E707
:10D7A0000000000000000000000000000000000079
:10D7B0000000000000000000000000000000000069
:10D7C00090F800F06DE9024520F007016FF0000CC1
:10D7D00010F0070491F820F040F049804FF0000469
:10D7E0006FF00700D1E9002391F840F000F1080044
:10D7F00082FA4CF2A4FA8CF283FA4CF3A2FA8CF37C
:10D800004BBBD1E9022382FA4CF200F10800A4FAE2
:10D810008CF283FA4CF3A2FA8CF3E3B9D1E9042336
:10D8200082FA4CF200F10800A4FA8CF283FA4CF36D
:10D83000A2FA8CF37BB9D1E9062301F1200182FA27
:10D840004CF200F10800A4FA8CF283FA4CF3A2FA2D
:10D850008CF3002BC6D0002A04BF04301A4612BA3B
:10D86000B2FA82F2FDE8024500EBD2007047D1E93E
:10D87000002304F00305C4F100004FEAC50514F0CD
:10D88000040F91F840F00CFA05F562EA05021CBF9E
:10D8900063EA050362464FF00004A9E72DE9F84367
:10D8A000224C25680DB36C681F2C3BDC98469146D2
:10D8B0000F46064688B1D5F8880028B3D0F8003165
:10D8C00040F824900122A24000EB84011343022E71
:10D8D000C0F80031C1F8808010D0A31C01346C6006
:10D8E00045F823700020BDE8F883114E114D2560E6
:10D8F000002ED8D03468C5F88840D4E7D0F8043179
:10D900001A43C0F80421E8E70B4B5BB14FF4847075
:10D91000AFF3008030B100236C68C0E94033C5F834
:10D920008800CDE74FF0FF30DDE700BFEC7C002042
:10D9300000000000607C0020000000002DE9F04F96
:10D94000DFF8908083B0D8F8005001900F464FF078
:10D95000010A8DB16C68D5F88860013C0CD405F1E2
:10D96000080B67B12EB106F1800353F82430BB4297
:10D9700005D014F1FF34F4D203B0BDE8F08F6B682A
:10D980005BF82420013BA34216BF00236C604BF8D8
:10D990002430002AEDD0D5F80490B6B1D6F80011A5
:10D9A0000AFA04F30B4210D0D6F8040156F82410FA
:10D9B00003420CD1019890476B68D8F800204B4582
:10D9C00001D1AA42D5D01546C3E79047F4E70846EF
:10D9D0009047F1E7EC7C0020FEE700BFF8B500BF00
:10D9E000F8BC08BC9E467047F8B500BFF8BC08BC40
:10D9F0009E46704700100000040000000100000077
:10DA0000B18A0700D58A0700E58A0700558B070011
:10DA1000F58A0700BD8A0700C18A0700C58A07008A
:10DA2000001000000400000001000000618C0700ED
:10DA3000418C0700318C0700698E07001D8E07009E
:10DA4000038C0700078C07000D8C0700982F8A4273
:10DA500091443771CFFBC0B5A5DBB5E95BC2563940
:10DA6000F111F159A4823F92D55E1CAB98AA07D858
:10DA7000015B8312BE853124C37D0C55745DBE727B
:10DA8000FEB1DE80A706DC9B74F19BC1C1699BE4FB
:10DA90008647BEEFC69DC10FCCA10C246F2CE92D8B
:10DAA000AA84744ADCA9B05CDA88F97652513E98AF
:10DAB0006DC631A8C82703B0C77F59BFF30BE0C6B6
:10DAC0004791A7D55163CA0667292914850AB72744
:10DAD00038211B2EFC6D2C4D130D385354730A65E1
